{
  "_format": "hh-sol-artifact-1",
  "contractName": "CommunityVault",
  "sourceName": "contracts/DAO.sol",
  "abi": [
    {
      "inputs": [
        {
          "internalType": "address",
          "name": "timelock",
          "type": "address"
        }
      ],
      "stateMutability": "nonpayable",
      "type": "constructor"
    },
    {
      "anonymous": false,
      "inputs": [
        {
          "indexed": true,
          "internalType": "address",
          "name": "recipient",
          "type": "address"
        },
        {
          "indexed": false,
          "internalType": "uint256",
          "name": "amount",
          "type": "uint256"
        }
      ],
      "name": "FundsDispensed",
      "type": "event"
    },
    {
      "anonymous": false,
      "inputs": [
        {
          "indexed": true,
          "internalType": "address",
          "name": "sender",
          "type": "address"
        },
        {
          "indexed": false,
          "internalType": "uint256",
          "name": "amount",
          "type": "uint256"
        }
      ],
      "name": "FundsReceived",
      "type": "event"
    },
    {
      "anonymous": false,
      "inputs": [
        {
          "indexed": false,
          "internalType": "uint256",
          "name": "newAmount",
          "type": "uint256"
        }
      ],
      "name": "GrantAmountUpdated",
      "type": "event"
    },
    {
      "anonymous": false,
      "inputs": [
        {
          "indexed": true,
          "internalType": "address",
          "name": "previousOwner",
          "type": "address"
        },
        {
          "indexed": true,
          "internalType": "address",
          "name": "newOwner",
          "type": "address"
        }
      ],
      "name": "OwnershipTransferred",
      "type": "event"
    },
    {
      "anonymous": false,
      "inputs": [
        {
          "indexed": false,
          "internalType": "address",
          "name": "account",
          "type": "address"
        }
      ],
      "name": "Paused",
      "type": "event"
    },
    {
      "anonymous": false,
      "inputs": [
        {
          "indexed": false,
          "internalType": "address",
          "name": "account",
          "type": "address"
        }
      ],
      "name": "Unpaused",
      "type": "event"
    },
    {
      "inputs": [
        {
          "internalType": "address payable",
          "name": "recipient",
          "type": "address"
        },
        {
          "internalType": "uint256",
          "name": "amount",
          "type": "uint256"
        }
      ],
      "name": "dispenseFunds",
      "outputs": [],
      "stateMutability": "nonpayable",
      "type": "function"
    },
    {
      "inputs": [],
      "name": "getVaultBalance",
      "outputs": [
        {
          "internalType": "uint256",
          "name": "",
          "type": "uint256"
        }
      ],
      "stateMutability": "view",
      "type": "function"
    },
    {
      "inputs": [],
      "name": "grantCount",
      "outputs": [
        {
          "internalType": "uint256",
          "name": "",
          "type": "uint256"
        }
      ],
      "stateMutability": "view",
      "type": "function"
    },
    {
      "inputs": [],
      "name": "owner",
      "outputs": [
        {
          "internalType": "address",
          "name": "",
          "type": "address"
        }
      ],
      "stateMutability": "view",
      "type": "function"
    },
    {
      "inputs": [],
      "name": "pauseVault",
      "outputs": [],
      "stateMutability": "nonpayable",
      "type": "function"
    },
    {
      "inputs": [],
      "name": "paused",
      "outputs": [
        {
          "internalType": "bool",
          "name": "",
          "type": "bool"
        }
      ],
      "stateMutability": "view",
      "type": "function"
    },
    {
      "inputs": [],
      "name": "renounceOwnership",
      "outputs": [],
      "stateMutability": "nonpayable",
      "type": "function"
    },
    {
      "inputs": [],
      "name": "standardGrantAmount",
      "outputs": [
        {
          "internalType": "uint256",
          "name": "",
          "type": "uint256"
        }
      ],
      "stateMutability": "view",
      "type": "function"
    },
    {
      "inputs": [],
      "name": "totalFundsDispensed",
      "outputs": [
        {
          "internalType": "uint256",
          "name": "",
          "type": "uint256"
        }
      ],
      "stateMutability": "view",
      "type": "function"
    },
    {
      "inputs": [
        {
          "internalType": "address",
          "name": "newOwner",
          "type": "address"
        }
      ],
      "name": "transferOwnership",
      "outputs": [],
      "stateMutability": "nonpayable",
      "type": "function"
    },
    {
      "inputs": [],
      "name": "unpauseVault",
      "outputs": [],
      "stateMutability": "nonpayable",
      "type": "function"
    },
    {
      "inputs": [
        {
          "internalType": "uint256",
          "name": "_newAmount",
          "type": "uint256"
        }
      ],
      "name": "updateGrantAmount",
      "outputs": [],
      "stateMutability": "nonpayable",
      "type": "function"
    },
    {
      "stateMutability": "payable",
      "type": "receive"
    }
  ],
  "bytecode": "0x608060405234801561001057600080fd5b5060405161090438038061090483398101604081905261002f916100ff565b610038336100af565b600180556002805460ff191690556001600160a01b0381166100a05760405162461bcd60e51b815260206004820152601860248201527f496e76616c69642074696d656c6f636b20616464726573730000000000000000604482015260640160405180910390fd5b6100a9816100af565b5061012f565b600080546001600160a01b038381166001600160a01b0319831681178455604051919092169283917f8be0079c531659141344cd1fd0a4f28419497f9722a3daafe3b4186f6b6457e09190a35050565b60006020828403121561011157600080fd5b81516001600160a01b038116811461012857600080fd5b9392505050565b6107c68061013e6000396000f3fe6080604052600436106100ab5760003560e01c80638da5cb5b116100645780638da5cb5b146101a45780639e0879c2146101cc578063a13237f0146101e1578063cab42672146101f7578063ed12e8ef1461020d578063f2fde38b1461022057600080fd5b806303cf19b4146100ec5780630b7562be1461010e5780635c975abb146101235780636bed08971461014b578063715018a61461016b578063761fd1d61461018057600080fd5b366100e75760405134815233907f8e47b87b0ef542cdfa1659c551d88bad38aa7f452d2bbb349ab7530dfec8be8f9060200160405180910390a2005b600080fd5b3480156100f857600080fd5b5061010c6101073660046106ca565b610240565b005b34801561011a57600080fd5b5061010c610283565b34801561012f57600080fd5b5060025460ff1660405190151581526020015b60405180910390f35b34801561015757600080fd5b5061010c6101663660046106f8565b610295565b34801561017757600080fd5b5061010c61040e565b34801561018c57600080fd5b5061019660035481565b604051908152602001610142565b3480156101b057600080fd5b506000546040516001600160a01b039091168152602001610142565b3480156101d857600080fd5b5061010c610420565b3480156101ed57600080fd5b5061019660045481565b34801561020357600080fd5b5061019660055481565b34801561021957600080fd5b5047610196565b34801561022c57600080fd5b5061010c61023b366004610724565b610430565b6102486104a9565b60038190556040518181527f3ac369a807f21742bea45b57fa28e6ad73fdc44abab865695a02d69b451858f69060200160405180910390a150565b61028b6104a9565b610293610503565b565b61029d6104a9565b6102a5610555565b6102ad6105ae565b804710156102f75760405162461bcd60e51b8152602060048201526012602482015271496e73756666696369656e742066756e647360701b60448201526064015b60405180910390fd5b8060046000828254610309919061075e565b90915550506005805490600061031e83610777565b91905055506000826001600160a01b03168260405160006040518083038185875af1925050503d8060008114610370576040519150601f19603f3d011682016040523d82523d6000602084013e610375565b606091505b50509050806103bd5760405162461bcd60e51b815260206004820152601460248201527314d0d05248151c985b9cd9995c8819985a5b195960621b60448201526064016102ee565b826001600160a01b03167f01cab461c453c6d590a817208e7a77f1fbfe9126b10bfb67b1005b9ca2410fc4836040516103f891815260200190565b60405180910390a25061040a60018055565b5050565b6104166104a9565b61029360006105f4565b6104286104a9565b610293610644565b6104386104a9565b6001600160a01b03811661049d5760405162461bcd60e51b815260206004820152602660248201527f4f776e61626c653a206e6577206f776e657220697320746865207a65726f206160448201526564647265737360d01b60648201526084016102ee565b6104a6816105f4565b50565b6000546001600160a01b031633146102935760405162461bcd60e51b815260206004820181905260248201527f4f776e61626c653a2063616c6c6572206973206e6f7420746865206f776e657260448201526064016102ee565b61050b610681565b6002805460ff191690557f5db9ee0a495bf2e6ff9c91a7834c1ba4fdd244a5e8aa4e537bd38aeae4b073aa335b6040516001600160a01b03909116815260200160405180910390a1565b6002600154036105a75760405162461bcd60e51b815260206004820152601f60248201527f5265656e7472616e637947756172643a207265656e7472616e742063616c6c0060448201526064016102ee565b6002600155565b60025460ff16156102935760405162461bcd60e51b815260206004820152601060248201526f14185d5cd8589b194e881c185d5cd95960821b60448201526064016102ee565b600080546001600160a01b038381166001600160a01b0319831681178455604051919092169283917f8be0079c531659141344cd1fd0a4f28419497f9722a3daafe3b4186f6b6457e09190a35050565b61064c6105ae565b6002805460ff191660011790557f62e78cea01bee320cd4e420270b5ea74000d11b0c9f74754ebdbfc544b05a2586105383390565b60025460ff166102935760405162461bcd60e51b815260206004820152601460248201527314185d5cd8589b194e881b9bdd081c185d5cd95960621b60448201526064016102ee565b6000602082840312156106dc57600080fd5b5035919050565b6001600160a01b03811681146104a657600080fd5b6000806040838503121561070b57600080fd5b8235610716816106e3565b946020939093013593505050565b60006020828403121561073657600080fd5b8135610741816106e3565b9392505050565b634e487b7160e01b600052601160045260246000fd5b8082018082111561077157610771610748565b92915050565b60006001820161078957610789610748565b506001019056fea264697066735822122089defdd90ef2c93511464bf28ebc672469a53260f4763d742f5ffae02eda2fb664736f6c63430008140033",
  "linkReferences": {},
  "deployedLinkReferences": {}
}