{
  "_format": "hh-sol-artifact-1",
  "contractName": "DAOGovernor",
  "sourceName": "contracts/DAO.sol",
  "abi": [
    {
      "inputs": [
        {
          "internalType": "contract IVotes",
          "name": "_token",
          "type": "address"
        },
        {
          "internalType": "contract TimelockController",
          "name": "_timelock",
          "type": "address"
        }
      ],
      "stateMutability": "nonpayable",
      "type": "constructor"
    },
    {
      "inputs": [],
      "name": "Empty",
      "type": "error"
    },
    {
      "inputs": [],
      "name": "InvalidShortString",
      "type": "error"
    },
    {
      "inputs": [
        {
          "internalType": "string",
          "name": "str",
          "type": "string"
        }
      ],
      "name": "StringTooLong",
      "type": "error"
    },
    {
      "anonymous": false,
      "inputs": [],
      "name": "EIP712DomainChanged",
      "type": "event"
    },
    {
      "anonymous": false,
      "inputs": [
        {
          "indexed": false,
          "internalType": "uint256",
          "name": "proposalId",
          "type": "uint256"
        }
      ],
      "name": "ProposalCanceled",
      "type": "event"
    },
    {
      "anonymous": false,
      "inputs": [
        {
          "indexed": false,
          "internalType": "uint256",
          "name": "proposalId",
          "type": "uint256"
        },
        {
          "indexed": false,
          "internalType": "address",
          "name": "proposer",
          "type": "address"
        },
        {
          "indexed": false,
          "internalType": "address[]",
          "name": "targets",
          "type": "address[]"
        },
        {
          "indexed": false,
          "internalType": "uint256[]",
          "name": "values",
          "type": "uint256[]"
        },
        {
          "indexed": false,
          "internalType": "string[]",
          "name": "signatures",
          "type": "string[]"
        },
        {
          "indexed": false,
          "internalType": "bytes[]",
          "name": "calldatas",
          "type": "bytes[]"
        },
        {
          "indexed": false,
          "internalType": "uint256",
          "name": "voteStart",
          "type": "uint256"
        },
        {
          "indexed": false,
          "internalType": "uint256",
          "name": "voteEnd",
          "type": "uint256"
        },
        {
          "indexed": false,
          "internalType": "string",
          "name": "description",
          "type": "string"
        }
      ],
      "name": "ProposalCreated",
      "type": "event"
    },
    {
      "anonymous": false,
      "inputs": [
        {
          "indexed": false,
          "internalType": "uint256",
          "name": "proposalId",
          "type": "uint256"
        }
      ],
      "name": "ProposalExecuted",
      "type": "event"
    },
    {
      "anonymous": false,
      "inputs": [
        {
          "indexed": false,
          "internalType": "uint256",
          "name": "proposalId",
          "type": "uint256"
        },
        {
          "indexed": false,
          "internalType": "uint256",
          "name": "eta",
          "type": "uint256"
        }
      ],
      "name": "ProposalQueued",
      "type": "event"
    },
    {
      "anonymous": false,
      "inputs": [
        {
          "indexed": false,
          "internalType": "uint256",
          "name": "oldProposalThreshold",
          "type": "uint256"
        },
        {
          "indexed": false,
          "internalType": "uint256",
          "name": "newProposalThreshold",
          "type": "uint256"
        }
      ],
      "name": "ProposalThresholdSet",
      "type": "event"
    },
    {
      "anonymous": false,
      "inputs": [
        {
          "indexed": false,
          "internalType": "address",
          "name": "oldTimelock",
          "type": "address"
        },
        {
          "indexed": false,
          "internalType": "address",
          "name": "newTimelock",
          "type": "address"
        }
      ],
      "name": "TimelockChange",
      "type": "event"
    },
    {
      "anonymous": false,
      "inputs": [
        {
          "indexed": true,
          "internalType": "address",
          "name": "voter",
          "type": "address"
        },
        {
          "indexed": false,
          "internalType": "uint256",
          "name": "proposalId",
          "type": "uint256"
        },
        {
          "indexed": false,
          "internalType": "uint8",
          "name": "support",
          "type": "uint8"
        },
        {
          "indexed": false,
          "internalType": "uint256",
          "name": "weight",
          "type": "uint256"
        },
        {
          "indexed": false,
          "internalType": "string",
          "name": "reason",
          "type": "string"
        }
      ],
      "name": "VoteCast",
      "type": "event"
    },
    {
      "anonymous": false,
      "inputs": [
        {
          "indexed": true,
          "internalType": "address",
          "name": "voter",
          "type": "address"
        },
        {
          "indexed": false,
          "internalType": "uint256",
          "name": "proposalId",
          "type": "uint256"
        },
        {
          "indexed": false,
          "internalType": "uint8",
          "name": "support",
          "type": "uint8"
        },
        {
          "indexed": false,
          "internalType": "uint256",
          "name": "weight",
          "type": "uint256"
        },
        {
          "indexed": false,
          "internalType": "string",
          "name": "reason",
          "type": "string"
        },
        {
          "indexed": false,
          "internalType": "bytes",
          "name": "params",
          "type": "bytes"
        }
      ],
      "name": "VoteCastWithParams",
      "type": "event"
    },
    {
      "anonymous": false,
      "inputs": [
        {
          "indexed": false,
          "internalType": "uint256",
          "name": "oldVotingDelay",
          "type": "uint256"
        },
        {
          "indexed": false,
          "internalType": "uint256",
          "name": "newVotingDelay",
          "type": "uint256"
        }
      ],
      "name": "VotingDelaySet",
      "type": "event"
    },
    {
      "anonymous": false,
      "inputs": [
        {
          "indexed": false,
          "internalType": "uint256",
          "name": "oldVotingPeriod",
          "type": "uint256"
        },
        {
          "indexed": false,
          "internalType": "uint256",
          "name": "newVotingPeriod",
          "type": "uint256"
        }
      ],
      "name": "VotingPeriodSet",
      "type": "event"
    },
    {
      "inputs": [],
      "name": "BALLOT_TYPEHASH",
      "outputs": [
        {
          "internalType": "bytes32",
          "name": "",
          "type": "bytes32"
        }
      ],
      "stateMutability": "view",
      "type": "function"
    },
    {
      "inputs": [],
      "name": "CLOCK_MODE",
      "outputs": [
        {
          "internalType": "string",
          "name": "",
          "type": "string"
        }
      ],
      "stateMutability": "view",
      "type": "function"
    },
    {
      "inputs": [],
      "name": "COUNTING_MODE",
      "outputs": [
        {
          "internalType": "string",
          "name": "",
          "type": "string"
        }
      ],
      "stateMutability": "pure",
      "type": "function"
    },
    {
      "inputs": [],
      "name": "EXTENDED_BALLOT_TYPEHASH",
      "outputs": [
        {
          "internalType": "bytes32",
          "name": "",
          "type": "bytes32"
        }
      ],
      "stateMutability": "view",
      "type": "function"
    },
    {
      "inputs": [
        {
          "internalType": "address[]",
          "name": "targets",
          "type": "address[]"
        },
        {
          "internalType": "uint256[]",
          "name": "values",
          "type": "uint256[]"
        },
        {
          "internalType": "bytes[]",
          "name": "calldatas",
          "type": "bytes[]"
        },
        {
          "internalType": "bytes32",
          "name": "descriptionHash",
          "type": "bytes32"
        }
      ],
      "name": "cancel",
      "outputs": [
        {
          "internalType": "uint256",
          "name": "",
          "type": "uint256"
        }
      ],
      "stateMutability": "nonpayable",
      "type": "function"
    },
    {
      "inputs": [
        {
          "internalType": "uint256",
          "name": "proposalId",
          "type": "uint256"
        },
        {
          "internalType": "uint8",
          "name": "support",
          "type": "uint8"
        }
      ],
      "name": "castVote",
      "outputs": [
        {
          "internalType": "uint256",
          "name": "",
          "type": "uint256"
        }
      ],
      "stateMutability": "nonpayable",
      "type": "function"
    },
    {
      "inputs": [
        {
          "internalType": "uint256",
          "name": "proposalId",
          "type": "uint256"
        },
        {
          "internalType": "uint8",
          "name": "support",
          "type": "uint8"
        },
        {
          "internalType": "uint8",
          "name": "v",
          "type": "uint8"
        },
        {
          "internalType": "bytes32",
          "name": "r",
          "type": "bytes32"
        },
        {
          "internalType": "bytes32",
          "name": "s",
          "type": "bytes32"
        }
      ],
      "name": "castVoteBySig",
      "outputs": [
        {
          "internalType": "uint256",
          "name": "",
          "type": "uint256"
        }
      ],
      "stateMutability": "nonpayable",
      "type": "function"
    },
    {
      "inputs": [
        {
          "internalType": "uint256",
          "name": "proposalId",
          "type": "uint256"
        },
        {
          "internalType": "uint8",
          "name": "support",
          "type": "uint8"
        },
        {
          "internalType": "string",
          "name": "reason",
          "type": "string"
        }
      ],
      "name": "castVoteWithReason",
      "outputs": [
        {
          "internalType": "uint256",
          "name": "",
          "type": "uint256"
        }
      ],
      "stateMutability": "nonpayable",
      "type": "function"
    },
    {
      "inputs": [
        {
          "internalType": "uint256",
          "name": "proposalId",
          "type": "uint256"
        },
        {
          "internalType": "uint8",
          "name": "support",
          "type": "uint8"
        },
        {
          "internalType": "string",
          "name": "reason",
          "type": "string"
        },
        {
          "internalType": "bytes",
          "name": "params",
          "type": "bytes"
        }
      ],
      "name": "castVoteWithReasonAndParams",
      "outputs": [
        {
          "internalType": "uint256",
          "name": "",
          "type": "uint256"
        }
      ],
      "stateMutability": "nonpayable",
      "type": "function"
    },
    {
      "inputs": [
        {
          "internalType": "uint256",
          "name": "proposalId",
          "type": "uint256"
        },
        {
          "internalType": "uint8",
          "name": "support",
          "type": "uint8"
        },
        {
          "internalType": "string",
          "name": "reason",
          "type": "string"
        },
        {
          "internalType": "bytes",
          "name": "params",
          "type": "bytes"
        },
        {
          "internalType": "uint8",
          "name": "v",
          "type": "uint8"
        },
        {
          "internalType": "bytes32",
          "name": "r",
          "type": "bytes32"
        },
        {
          "internalType": "bytes32",
          "name": "s",
          "type": "bytes32"
        }
      ],
      "name": "castVoteWithReasonAndParamsBySig",
      "outputs": [
        {
          "internalType": "uint256",
          "name": "",
          "type": "uint256"
        }
      ],
      "stateMutability": "nonpayable",
      "type": "function"
    },
    {
      "inputs": [],
      "name": "clock",
      "outputs": [
        {
          "internalType": "uint48",
          "name": "",
          "type": "uint48"
        }
      ],
      "stateMutability": "view",
      "type": "function"
    },
    {
      "inputs": [],
      "name": "eip712Domain",
      "outputs": [
        {
          "internalType": "bytes1",
          "name": "fields",
          "type": "bytes1"
        },
        {
          "internalType": "string",
          "name": "name",
          "type": "string"
        },
        {
          "internalType": "string",
          "name": "version",
          "type": "string"
        },
        {
          "internalType": "uint256",
          "name": "chainId",
          "type": "uint256"
        },
        {
          "internalType": "address",
          "name": "verifyingContract",
          "type": "address"
        },
        {
          "internalType": "bytes32",
          "name": "salt",
          "type": "bytes32"
        },
        {
          "internalType": "uint256[]",
          "name": "extensions",
          "type": "uint256[]"
        }
      ],
      "stateMutability": "view",
      "type": "function"
    },
    {
      "inputs": [
        {
          "internalType": "address[]",
          "name": "targets",
          "type": "address[]"
        },
        {
          "internalType": "uint256[]",
          "name": "values",
          "type": "uint256[]"
        },
        {
          "internalType": "bytes[]",
          "name": "calldatas",
          "type": "bytes[]"
        },
        {
          "internalType": "bytes32",
          "name": "descriptionHash",
          "type": "bytes32"
        }
      ],
      "name": "execute",
      "outputs": [
        {
          "internalType": "uint256",
          "name": "",
          "type": "uint256"
        }
      ],
      "stateMutability": "payable",
      "type": "function"
    },
    {
      "inputs": [
        {
          "internalType": "address",
          "name": "account",
          "type": "address"
        },
        {
          "internalType": "uint256",
          "name": "timepoint",
          "type": "uint256"
        }
      ],
      "name": "getVotes",
      "outputs": [
        {
          "internalType": "uint256",
          "name": "",
          "type": "uint256"
        }
      ],
      "stateMutability": "view",
      "type": "function"
    },
    {
      "inputs": [
        {
          "internalType": "address",
          "name": "account",
          "type": "address"
        },
        {
          "internalType": "uint256",
          "name": "timepoint",
          "type": "uint256"
        },
        {
          "internalType": "bytes",
          "name": "params",
          "type": "bytes"
        }
      ],
      "name": "getVotesWithParams",
      "outputs": [
        {
          "internalType": "uint256",
          "name": "",
          "type": "uint256"
        }
      ],
      "stateMutability": "view",
      "type": "function"
    },
    {
      "inputs": [
        {
          "internalType": "uint256",
          "name": "proposalId",
          "type": "uint256"
        },
        {
          "internalType": "address",
          "name": "account",
          "type": "address"
        }
      ],
      "name": "hasVoted",
      "outputs": [
        {
          "internalType": "bool",
          "name": "",
          "type": "bool"
        }
      ],
      "stateMutability": "view",
      "type": "function"
    },
    {
      "inputs": [
        {
          "internalType": "address[]",
          "name": "targets",
          "type": "address[]"
        },
        {
          "internalType": "uint256[]",
          "name": "values",
          "type": "uint256[]"
        },
        {
          "internalType": "bytes[]",
          "name": "calldatas",
          "type": "bytes[]"
        },
        {
          "internalType": "bytes32",
          "name": "descriptionHash",
          "type": "bytes32"
        }
      ],
      "name": "hashProposal",
      "outputs": [
        {
          "internalType": "uint256",
          "name": "",
          "type": "uint256"
        }
      ],
      "stateMutability": "pure",
      "type": "function"
    },
    {
      "inputs": [],
      "name": "name",
      "outputs": [
        {
          "internalType": "string",
          "name": "",
          "type": "string"
        }
      ],
      "stateMutability": "view",
      "type": "function"
    },
    {
      "inputs": [
        {
          "internalType": "address",
          "name": "",
          "type": "address"
        },
        {
          "internalType": "address",
          "name": "",
          "type": "address"
        },
        {
          "internalType": "uint256[]",
          "name": "",
          "type": "uint256[]"
        },
        {
          "internalType": "uint256[]",
          "name": "",
          "type": "uint256[]"
        },
        {
          "internalType": "bytes",
          "name": "",
          "type": "bytes"
        }
      ],
      "name": "onERC1155BatchReceived",
      "outputs": [
        {
          "internalType": "bytes4",
          "name": "",
          "type": "bytes4"
        }
      ],
      "stateMutability": "nonpayable",
      "type": "function"
    },
    {
      "inputs": [
        {
          "internalType": "address",
          "name": "",
          "type": "address"
        },
        {
          "internalType": "address",
          "name": "",
          "type": "address"
        },
        {
          "internalType": "uint256",
          "name": "",
          "type": "uint256"
        },
        {
          "internalType": "uint256",
          "name": "",
          "type": "uint256"
        },
        {
          "internalType": "bytes",
          "name": "",
          "type": "bytes"
        }
      ],
      "name": "onERC1155Received",
      "outputs": [
        {
          "internalType": "bytes4",
          "name": "",
          "type": "bytes4"
        }
      ],
      "stateMutability": "nonpayable",
      "type": "function"
    },
    {
      "inputs": [
        {
          "internalType": "address",
          "name": "",
          "type": "address"
        },
        {
          "internalType": "address",
          "name": "",
          "type": "address"
        },
        {
          "internalType": "uint256",
          "name": "",
          "type": "uint256"
        },
        {
          "internalType": "bytes",
          "name": "",
          "type": "bytes"
        }
      ],
      "name": "onERC721Received",
      "outputs": [
        {
          "internalType": "bytes4",
          "name": "",
          "type": "bytes4"
        }
      ],
      "stateMutability": "nonpayable",
      "type": "function"
    },
    {
      "inputs": [
        {
          "internalType": "uint256",
          "name": "proposalId",
          "type": "uint256"
        }
      ],
      "name": "proposalDeadline",
      "outputs": [
        {
          "internalType": "uint256",
          "name": "",
          "type": "uint256"
        }
      ],
      "stateMutability": "view",
      "type": "function"
    },
    {
      "inputs": [
        {
          "internalType": "uint256",
          "name": "proposalId",
          "type": "uint256"
        }
      ],
      "name": "proposalEta",
      "outputs": [
        {
          "internalType": "uint256",
          "name": "",
          "type": "uint256"
        }
      ],
      "stateMutability": "view",
      "type": "function"
    },
    {
      "inputs": [
        {
          "internalType": "uint256",
          "name": "proposalId",
          "type": "uint256"
        }
      ],
      "name": "proposalProposer",
      "outputs": [
        {
          "internalType": "address",
          "name": "",
          "type": "address"
        }
      ],
      "stateMutability": "view",
      "type": "function"
    },
    {
      "inputs": [
        {
          "internalType": "uint256",
          "name": "proposalId",
          "type": "uint256"
        }
      ],
      "name": "proposalSnapshot",
      "outputs": [
        {
          "internalType": "uint256",
          "name": "",
          "type": "uint256"
        }
      ],
      "stateMutability": "view",
      "type": "function"
    },
    {
      "inputs": [],
      "name": "proposalThreshold",
      "outputs": [
        {
          "internalType": "uint256",
          "name": "",
          "type": "uint256"
        }
      ],
      "stateMutability": "view",
      "type": "function"
    },
    {
      "inputs": [
        {
          "internalType": "uint256",
          "name": "proposalId",
          "type": "uint256"
        }
      ],
      "name": "proposalVotes",
      "outputs": [
        {
          "internalType": "uint256",
          "name": "againstVotes",
          "type": "uint256"
        },
        {
          "internalType": "uint256",
          "name": "forVotes",
          "type": "uint256"
        },
        {
          "internalType": "uint256",
          "name": "abstainVotes",
          "type": "uint256"
        }
      ],
      "stateMutability": "view",
      "type": "function"
    },
    {
      "inputs": [
        {
          "internalType": "address[]",
          "name": "targets",
          "type": "address[]"
        },
        {
          "internalType": "uint256[]",
          "name": "values",
          "type": "uint256[]"
        },
        {
          "internalType": "bytes[]",
          "name": "calldatas",
          "type": "bytes[]"
        },
        {
          "internalType": "string",
          "name": "description",
          "type": "string"
        }
      ],
      "name": "propose",
      "outputs": [
        {
          "internalType": "uint256",
          "name": "",
          "type": "uint256"
        }
      ],
      "stateMutability": "nonpayable",
      "type": "function"
    },
    {
      "inputs": [
        {
          "internalType": "address[]",
          "name": "targets",
          "type": "address[]"
        },
        {
          "internalType": "uint256[]",
          "name": "values",
          "type": "uint256[]"
        },
        {
          "internalType": "bytes[]",
          "name": "calldatas",
          "type": "bytes[]"
        },
        {
          "internalType": "bytes32",
          "name": "descriptionHash",
          "type": "bytes32"
        }
      ],
      "name": "queue",
      "outputs": [
        {
          "internalType": "uint256",
          "name": "",
          "type": "uint256"
        }
      ],
      "stateMutability": "nonpayable",
      "type": "function"
    },
    {
      "inputs": [
        {
          "internalType": "uint256",
          "name": "",
          "type": "uint256"
        }
      ],
      "name": "quorum",
      "outputs": [
        {
          "internalType": "uint256",
          "name": "",
          "type": "uint256"
        }
      ],
      "stateMutability": "pure",
      "type": "function"
    },
    {
      "inputs": [
        {
          "internalType": "address",
          "name": "target",
          "type": "address"
        },
        {
          "internalType": "uint256",
          "name": "value",
          "type": "uint256"
        },
        {
          "internalType": "bytes",
          "name": "data",
          "type": "bytes"
        }
      ],
      "name": "relay",
      "outputs": [],
      "stateMutability": "payable",
      "type": "function"
    },
    {
      "inputs": [
        {
          "internalType": "uint256",
          "name": "newProposalThreshold",
          "type": "uint256"
        }
      ],
      "name": "setProposalThreshold",
      "outputs": [],
      "stateMutability": "nonpayable",
      "type": "function"
    },
    {
      "inputs": [
        {
          "internalType": "uint256",
          "name": "newVotingDelay",
          "type": "uint256"
        }
      ],
      "name": "setVotingDelay",
      "outputs": [],
      "stateMutability": "nonpayable",
      "type": "function"
    },
    {
      "inputs": [
        {
          "internalType": "uint256",
          "name": "newVotingPeriod",
          "type": "uint256"
        }
      ],
      "name": "setVotingPeriod",
      "outputs": [],
      "stateMutability": "nonpayable",
      "type": "function"
    },
    {
      "inputs": [
        {
          "internalType": "uint256",
          "name": "proposalId",
          "type": "uint256"
        }
      ],
      "name": "state",
      "outputs": [
        {
          "internalType": "enum IGovernor.ProposalState",
          "name": "",
          "type": "uint8"
        }
      ],
      "stateMutability": "view",
      "type": "function"
    },
    {
      "inputs": [
        {
          "internalType": "bytes4",
          "name": "interfaceId",
          "type": "bytes4"
        }
      ],
      "name": "supportsInterface",
      "outputs": [
        {
          "internalType": "bool",
          "name": "",
          "type": "bool"
        }
      ],
      "stateMutability": "view",
      "type": "function"
    },
    {
      "inputs": [],
      "name": "timelock",
      "outputs": [
        {
          "internalType": "address",
          "name": "",
          "type": "address"
        }
      ],
      "stateMutability": "view",
      "type": "function"
    },
    {
      "inputs": [],
      "name": "token",
      "outputs": [
        {
          "internalType": "contract IERC5805",
          "name": "",
          "type": "address"
        }
      ],
      "stateMutability": "view",
      "type": "function"
    },
    {
      "inputs": [
        {
          "internalType": "contract TimelockController",
          "name": "newTimelock",
          "type": "address"
        }
      ],
      "name": "updateTimelock",
      "outputs": [],
      "stateMutability": "nonpayable",
      "type": "function"
    },
    {
      "inputs": [],
      "name": "version",
      "outputs": [
        {
          "internalType": "string",
          "name": "",
          "type": "string"
        }
      ],
      "stateMutability": "view",
      "type": "function"
    },
    {
      "inputs": [],
      "name": "votingDelay",
      "outputs": [
        {
          "internalType": "uint256",
          "name": "",
          "type": "uint256"
        }
      ],
      "stateMutability": "view",
      "type": "function"
    },
    {
      "inputs": [],
      "name": "votingPeriod",
      "outputs": [
        {
          "internalType": "uint256",
          "name": "",
          "type": "uint256"
        }
      ],
      "stateMutability": "view",
      "type": "function"
    },
    {
      "stateMutability": "payable",
      "type": "receive"
    }
  ],
  "bytecode": "0x6101806040523480156200001257600080fd5b50604051620043ee380380620043ee8339810160408190526200003591620003c9565b80826001603268056bc75e2d631000006040518060400160405280600d81526020016c29a1a0a49023b7bb32b93737b960991b815250806200007c6200018760201b60201c565b62000089826000620001a2565b610120526200009a816001620001a2565b61014052815160208084019190912060e052815190820120610100524660a0526200012860e05161010051604080517f8b73c3c69bb8fe3d512ecc4cf759cc79239f7b179b0ffacaa9a75d522b39400f60208201529081019290925260608201524660808201523060a082015260009060c00160405160208183030381529060405280519060200120905090565b60805250503060c05260026200013f8282620004ad565b506200014d905083620001db565b62000158826200021c565b6200016381620002c3565b5050506001600160a01b0316610160526200017e8162000304565b505050620005ee565b6040805180820190915260018152603160f81b602082015290565b6000602083511015620001c257620001ba836200036d565b9050620001d5565b81620001cf8482620004ad565b5060ff90505b92915050565b60065460408051918252602082018390527fc565b045403dc03c2eea82b81a0465edad9e2e7fc4d97e11421c209da93d7a93910160405180910390a1600655565b60008111620002825760405162461bcd60e51b815260206004820152602760248201527f476f7665726e6f7253657474696e67733a20766f74696e6720706572696f6420604482015266746f6f206c6f7760c81b60648201526084015b60405180910390fd5b60075460408051918252602082018390527f7e3f7f0708a84de9203036abaa450dccc85ad5ff52f78c170f3edb55cf5e8828910160405180910390a1600755565b60085460408051918252602082018390527fccb45da8d5717e6c4544694297c4ba5cf151d455c9bb0ed4fc7a38411bc05461910160405180910390a1600855565b600a54604080516001600160a01b03928316815291831660208301527f08f74ea46ef7894f65eabfb5e6e695de773a000b47c529ab559178069b226401910160405180910390a1600a80546001600160a01b0319166001600160a01b0392909216919091179055565b600080829050601f815111156200039b578260405163305a27a960e01b815260040162000279919062000579565b8051620003a882620005c9565b179392505050565b6001600160a01b0381168114620003c657600080fd5b50565b60008060408385031215620003dd57600080fd5b8251620003ea81620003b0565b6020840151909250620003fd81620003b0565b809150509250929050565b634e487b7160e01b600052604160045260246000fd5b600181811c908216806200043357607f821691505b6020821081036200045457634e487b7160e01b600052602260045260246000fd5b50919050565b601f821115620004a857600081815260208120601f850160051c81016020861015620004835750805b601f850160051c820191505b81811015620004a4578281556001016200048f565b5050505b505050565b81516001600160401b03811115620004c957620004c962000408565b620004e181620004da84546200041e565b846200045a565b602080601f831160018114620005195760008415620005005750858301515b600019600386901b1c1916600185901b178555620004a4565b600085815260208120601f198616915b828110156200054a5788860151825594840194600190910190840162000529565b5085821015620005695787850151600019600388901b60f8161c191681555b5050505050600190811b01905550565b600060208083528351808285015260005b81811015620005a8578581018301518582016040015282016200058a565b506000604082860101526040601f19601f8301168501019250505092915050565b80516020808301519190811015620004545760001960209190910360031b1b16919050565b60805160a05160c05160e05161010051610120516101405161016051613d85620006696000396000818161095501528181610fca0152818161127001526120b00152600061121c015260006111f2015260006123f7015260006123cf0152600061232a015260006123540152600061237e0152613d856000f3fe6080604052600436106102555760003560e01c80637b3c71d311610139578063c28bc2fa116100b6578063ea0217cf1161007a578063ea0217cf1461088e578063eb9019d4146108ae578063ece40cc1146108ce578063f23a6e61146108ee578063f8ce560a1461091a578063fc0c546a1461094357600080fd5b8063c28bc2fa146107c3578063c59057e4146107d6578063d33219b4146107f6578063dd4e2ba514610814578063deaaa7cc1461085a57600080fd5b8063a890c910116100fd578063a890c91014610709578063ab58fb8e14610729578063b58131b014610749578063bc197c811461075e578063c01f9e371461078a57600080fd5b80637b3c71d3146106555780637d5e81e21461067557806384b0196e1461069557806391ddadf4146106bd5780639a802a6d146106e957600080fd5b80633932abb1116101d25780634bf5d7e9116101965780634bf5d7e914610561578063544ffc9c1461057657806354fd4d50146105cb57806356781388146105f55780635f398a141461061557806370b0f6601461063557600080fd5b80633932abb1146104955780633bccf4fd146104aa5780633e4f49e6146104ca57806343859632146104f7578063452115d61461054157600080fd5b8063150b7a0211610219578063150b7a02146103b4578063160cbed7146103f85780632656227d146104185780632d63f6931461042b5780632fe3e2611461046157600080fd5b806301ffc9a7146102c557806302a251a3146102fa578063034201811461031d57806306fdde031461033d578063143489d01461035f57600080fd5b366102c05730610263610977565b6001600160a01b0316146102be5760405162461bcd60e51b815260206004820152601f60248201527f476f7665726e6f723a206d7573742073656e6420746f206578656375746f720060448201526064015b60405180910390fd5b005b600080fd5b3480156102d157600080fd5b506102e56102e0366004612e46565b610990565b60405190151581526020015b60405180910390f35b34801561030657600080fd5b5061030f6109a1565b6040519081526020016102f1565b34801561032957600080fd5b5061030f610338366004612f94565b6109ac565b34801561034957600080fd5b50610352610aa4565b6040516102f1919061308a565b34801561036b57600080fd5b5061039c61037a36600461309d565b600090815260036020526040902054600160401b90046001600160a01b031690565b6040516001600160a01b0390911681526020016102f1565b3480156103c057600080fd5b506103df6103cf3660046130cb565b630a85bd0160e11b949350505050565b6040516001600160e01b031990911681526020016102f1565b34801561040457600080fd5b5061030f6104133660046132a2565b610b36565b61030f6104263660046132a2565b610d37565b34801561043757600080fd5b5061030f61044636600461309d565b6000908152600360205260409020546001600160401b031690565b34801561046d57600080fd5b5061030f7fb3b3f3b703cd84ce352197dcff232b1b5d3cfb2025ce47cf04742d0651f1af8881565b3480156104a157600080fd5b5061030f610e29565b3480156104b657600080fd5b5061030f6104c5366004613331565b610e34565b3480156104d657600080fd5b506104ea6104e536600461309d565b610eaa565b6040516102f19190613395565b34801561050357600080fd5b506102e56105123660046133bd565b60008281526009602090815260408083206001600160a01b038516845260030190915290205460ff1692915050565b34801561054d57600080fd5b5061030f61055c3660046132a2565b610eb5565b34801561056d57600080fd5b50610352610fc6565b34801561058257600080fd5b506105b061059136600461309d565b6000908152600960205260409020805460018201546002909201549092565b604080519384526020840192909252908201526060016102f1565b3480156105d757600080fd5b506040805180820190915260018152603160f81b6020820152610352565b34801561060157600080fd5b5061030f6106103660046133ed565b611088565b34801561062157600080fd5b5061030f610630366004613419565b6110b1565b34801561064157600080fd5b506102be61065036600461309d565b6110fb565b34801561066157600080fd5b5061030f61067036600461349c565b611185565b34801561068157600080fd5b5061030f6106903660046134f5565b6111cd565b3480156106a157600080fd5b506106aa6111e4565b6040516102f197969594939291906135e4565b3480156106c957600080fd5b506106d261126c565b60405165ffffffffffff90911681526020016102f1565b3480156106f557600080fd5b5061030f610704366004613646565b6112f5565b34801561071557600080fd5b506102be61072436600461369e565b61130c565b34801561073557600080fd5b5061030f61074436600461309d565b611393565b34801561075557600080fd5b5061030f61142d565b34801561076a57600080fd5b506103df6107793660046136bb565b63bc197c8160e01b95945050505050565b34801561079657600080fd5b5061030f6107a536600461309d565b6000908152600360205260409020600101546001600160401b031690565b6102be6107d136600461374e565b611438565b3480156107e257600080fd5b5061030f6107f13660046132a2565b611547565b34801561080257600080fd5b50600a546001600160a01b031661039c565b34801561082057600080fd5b506040805180820190915260208082527f737570706f72743d627261766f2671756f72756d3d666f722c6162737461696e90820152610352565b34801561086657600080fd5b5061030f7f150214d74d59b7d1e90c73fc22ef3d991dd0a76b046543d4d80ab92d2a50328f81565b34801561089a57600080fd5b506102be6108a936600461309d565b611581565b3480156108ba57600080fd5b5061030f6108c9366004613791565b611608565b3480156108da57600080fd5b506102be6108e936600461309d565b611629565b3480156108fa57600080fd5b506103df6109093660046137bd565b63f23a6e6160e01b95945050505050565b34801561092657600080fd5b5061030f61093536600461309d565b50683635c9adc5dea0000090565b34801561094f57600080fd5b5061039c7f000000000000000000000000000000000000000000000000000000000000000081565b600061098b600a546001600160a01b031690565b905090565b600061099b826116b0565b92915050565b600061098b60075490565b600080610a50610a487fb3b3f3b703cd84ce352197dcff232b1b5d3cfb2025ce47cf04742d0651f1af888c8c8c8c6040516109e8929190613825565b60405180910390208b80519060200120604051602001610a2d959493929190948552602085019390935260ff9190911660408401526060830152608082015260a00190565b604051602081830303815290604052805190602001206116d5565b868686611702565b9050610a968a828b8b8b8080601f0160208091040260200160405190810160405280939291908181526020018383808284376000920191909152508d9250611720915050565b9a9950505050505050505050565b606060028054610ab390613835565b80601f0160208091040260200160405190810160405280929190818152602001828054610adf90613835565b8015610b2c5780601f10610b0157610100808354040283529160200191610b2c565b820191906000526020600020905b815481529060010190602001808311610b0f57829003601f168201915b5050505050905090565b600080610b4586868686611547565b90506004610b5282610eaa565b6007811115610b6357610b6361337f565b14610b805760405162461bcd60e51b81526004016102b59061386f565b600a546040805163793d064960e11b815290516000926001600160a01b03169163f27a0c929160048083019260209291908290030181865afa158015610bca573d6000803e3d6000fd5b505050506040513d601f19601f82011682018060405250810190610bee91906138b0565b600a5460405163b1c5f42760e01b81529192506001600160a01b03169063b1c5f42790610c28908a908a908a906000908b90600401613957565b602060405180830381865afa158015610c45573d6000803e3d6000fd5b505050506040513d601f19601f82011682018060405250810190610c6991906138b0565b6000838152600b602052604080822092909255600a5491516308f2a0bb60e41b81526001600160a01b0390921691638f2a0bb091610cb4918b918b918b91908b9089906004016139a5565b600060405180830381600087803b158015610cce57600080fd5b505af1158015610ce2573d6000803e3d6000fd5b505050507f9a2e42fd6722813d69113e7d0079d3d940171428df7373df9c7f7617cfda2892828242610d149190613a13565b604080519283526020830191909152015b60405180910390a15095945050505050565b600080610d4686868686611547565b90506000610d5382610eaa565b90506004816007811115610d6957610d6961337f565b1480610d8657506005816007811115610d8457610d8461337f565b145b610da25760405162461bcd60e51b81526004016102b59061386f565b60008281526003602052604090819020600201805460ff19166001179055517f712ae1383f79ac853f8d882153778e0260ef8f03b504e2866e0593e04d2b291f90610df09084815260200190565b60405180910390a1610e058288888888611875565b610e128288888888611917565b610e1f8288888888611924565b5095945050505050565b600061098b60065490565b604080517f150214d74d59b7d1e90c73fc22ef3d991dd0a76b046543d4d80ab92d2a50328f602082015290810186905260ff851660608201526000908190610e8290610a4890608001610a2d565b9050610e9f8782886040518060200160405280600081525061195d565b979650505050505050565b600061099b82611980565b600080610ec486868686611547565b90506000610ed182610eaa565b6007811115610ee257610ee261337f565b14610f2f5760405162461bcd60e51b815260206004820152601c60248201527f476f7665726e6f723a20746f6f206c61746520746f2063616e63656c0000000060448201526064016102b5565b600081815260036020526040902054600160401b90046001600160a01b0316336001600160a01b031614610fb05760405162461bcd60e51b815260206004820152602260248201527f476f7665726e6f723a206f6e6c792070726f706f7365722063616e2063616e63604482015261195b60f21b60648201526084016102b5565b610fbc86868686611aca565b9695505050505050565b60607f00000000000000000000000000000000000000000000000000000000000000006001600160a01b0316634bf5d7e96040518163ffffffff1660e01b8152600401600060405180830381865afa92505050801561104757506040513d6000823e601f3d908101601f191682016040526110449190810190613a26565b60015b611083575060408051808201909152601d81527f6d6f64653d626c6f636b6e756d6265722666726f6d3d64656661756c74000000602082015290565b919050565b6000803390506110a98482856040518060200160405280600081525061195d565b949350505050565b600080339050610e9f87828888888080601f0160208091040260200160405190810160405280939291908181526020018383808284376000920191909152508a9250611720915050565b611103610977565b6001600160a01b0316336001600160a01b0316146111335760405162461bcd60e51b81526004016102b590613a93565b3061113c610977565b6001600160a01b031614611179576000803660405161115c929190613825565b604051809103902090505b806111726004611ad8565b0361116757505b61118281611b57565b50565b600080339050610fbc86828787878080601f01602080910402602001604051908101604052809392919081815260200183838082843760009201919091525061195d92505050565b60006111db85858585611b98565b95945050505050565b6000606080828080836112177f000000000000000000000000000000000000000000000000000000000000000083611f71565b6112427f00000000000000000000000000000000000000000000000000000000000000006001611f71565b60408051600080825260208201909252600f60f81b9b939a50919850469750309650945092509050565b60007f00000000000000000000000000000000000000000000000000000000000000006001600160a01b03166391ddadf46040518163ffffffff1660e01b8152600401602060405180830381865afa9250505080156112e8575060408051601f3d908101601f191682019092526112e591810190613aca565b60015b6110835761098b4361201c565b6000611302848484612087565b90505b9392505050565b611314610977565b6001600160a01b0316336001600160a01b0316146113445760405162461bcd60e51b81526004016102b590613a93565b3061134d610977565b6001600160a01b03161461138a576000803660405161136d929190613825565b604051809103902090505b806113836004611ad8565b0361137857505b6111828161211d565b600a546000828152600b602052604080822054905163d45c443560e01b81526004810191909152909182916001600160a01b039091169063d45c443590602401602060405180830381865afa1580156113f0573d6000803e3d6000fd5b505050506040513d601f19601f8201168201806040525081019061141491906138b0565b9050806001146114245780611305565b60009392505050565b600061098b60085490565b611440610977565b6001600160a01b0316336001600160a01b0316146114705760405162461bcd60e51b81526004016102b590613a93565b30611479610977565b6001600160a01b0316146114b65760008036604051611499929190613825565b604051809103902090505b806114af6004611ad8565b036114a457505b600080856001600160a01b03168585856040516114d4929190613825565b60006040518083038185875af1925050503d8060008114611511576040519150601f19603f3d011682016040523d82523d6000602084013e611516565b606091505b509150915061153e8282604051806060016040528060288152602001613d2860289139612186565b50505050505050565b6000848484846040516020016115609493929190613af2565b60408051601f19818403018152919052805160209091012095945050505050565b611589610977565b6001600160a01b0316336001600160a01b0316146115b95760405162461bcd60e51b81526004016102b590613a93565b306115c2610977565b6001600160a01b0316146115ff57600080366040516115e2929190613825565b604051809103902090505b806115f86004611ad8565b036115ed57505b6111828161219f565b6000611305838361162460408051602081019091526000815290565b612087565b611631610977565b6001600160a01b0316336001600160a01b0316146116615760405162461bcd60e51b81526004016102b590613a93565b3061166a610977565b6001600160a01b0316146116a7576000803660405161168a929190613825565b604051809103902090505b806116a06004611ad8565b0361169557505b61118281612240565b60006001600160e01b03198216636e665ced60e01b148061099b575061099b82612281565b600061099b6116e261231d565b8360405161190160f01b8152600281019290925260228201526042902090565b600080600061171387878787612448565b91509150610e1f8161250c565b6000858152600360205260408120600161173988610eaa565b600781111561174a5761174a61337f565b146117a35760405162461bcd60e51b815260206004820152602360248201527f476f7665726e6f723a20766f7465206e6f742063757272656e746c792061637460448201526269766560e81b60648201526084016102b5565b80546000906117bd9088906001600160401b031686612087565b90506117cc8888888488612656565b835160000361182157866001600160a01b03167fb8e138887d0aa13bab447e82de9d5c1777041ecd21ca36ba824ff1e6c07ddda4898884896040516118149493929190613b3d565b60405180910390a2610e9f565b866001600160a01b03167fe2babfbac5889a709b63bb7f598b324e08bc5a4fb9ec647fb3cbc9ec07eb87128988848989604051611862959493929190613b65565b60405180910390a2979650505050505050565b3061187e610977565b6001600160a01b0316146119105760005b845181101561190e57306001600160a01b03168582815181106118b4576118b4613bab565b60200260200101516001600160a01b0316036118fe576118fe8382815181106118df576118df613bab565b60200260200101518051906020012060046127d090919063ffffffff16565b61190781613bc1565b905061188f565b505b5050505050565b611910858585858561280c565b3061192d610977565b6001600160a01b03161461191057600454600f81810b600160801b909204900b1315611910576000600455611910565b60006111db8585858561197b60408051602081019091526000815290565b611720565b60008061198c83612880565b905060048160078111156119a2576119a261337f565b146119ad5792915050565b6000838152600b6020526040902054806119c8575092915050565b600a54604051632ab0f52960e01b8152600481018390526001600160a01b0390911690632ab0f52990602401602060405180830381865afa158015611a11573d6000803e3d6000fd5b505050506040513d601f19601f82011682018060405250810190611a359190613bda565b15611a44575060079392505050565b600a54604051632c258a9f60e11b8152600481018390526001600160a01b039091169063584b153e90602401602060405180830381865afa158015611a8d573d6000803e3d6000fd5b505050506040513d601f19601f82011682018060405250810190611ab19190613bda565b15611ac0575060059392505050565b5060029392505050565b60006111db858585856129c0565b6000611af38254600f81810b600160801b909204900b131590565b15611b1157604051631ed9509560e11b815260040160405180910390fd5b508054600f0b6000818152600180840160205260408220805492905583546fffffffffffffffffffffffffffffffff191692016001600160801b03169190911790915590565b60065460408051918252602082018390527fc565b045403dc03c2eea82b81a0465edad9e2e7fc4d97e11421c209da93d7a93910160405180910390a1600655565b600033611ba58184612a72565b611bf15760405162461bcd60e51b815260206004820152601d60248201527f476f7665726e6f723a2070726f706f736572207265737472696374656400000060448201526064016102b5565b6000611bfb61126c565b65ffffffffffff169050611c0d61142d565b611c1c836108c9600185613bfc565b1015611c845760405162461bcd60e51b815260206004820152603160248201527f476f7665726e6f723a2070726f706f73657220766f7465732062656c6f7720706044820152701c9bdc1bdcd85b081d1a1c995cda1bdb19607a1b60648201526084016102b5565b6000611c998888888880519060200120611547565b90508651885114611cbc5760405162461bcd60e51b81526004016102b590613c0f565b8551885114611cdd5760405162461bcd60e51b81526004016102b590613c0f565b6000885111611d2e5760405162461bcd60e51b815260206004820152601860248201527f476f7665726e6f723a20656d7074792070726f706f73616c000000000000000060448201526064016102b5565b6000818152600360205260409020546001600160401b031615611d9d5760405162461bcd60e51b815260206004820152602160248201527f476f7665726e6f723a2070726f706f73616c20616c72656164792065786973746044820152607360f81b60648201526084016102b5565b6000611da7610e29565b611db19084613a13565b90506000611dbd6109a1565b611dc79083613a13565b90506040518060e00160405280611ddd84612b63565b6001600160401b031681526001600160a01b038716602082015260006040820152606001611e0a83612b63565b6001600160401b039081168252600060208084018290526040808501839052606094850183905288835260038252918290208551815492870151878501519186166001600160e01b031990941693909317600160401b6001600160a01b039094168402176001600160e01b0316600160e01b60e09290921c91909102178155938501516080860151908416921c0217600183015560a08301516002909201805460c09094015161ffff1990941692151561ff00191692909217610100931515939093029290921790558a517f7d84a6263ae0d98d3329bd7b46bb4e8d6f98cd35a7adb45c274c8b7fd5ebd5e091859188918e918e91811115611f0e57611f0e612ec9565b604051908082528060200260200182016040528015611f4157816020015b6060815260200190600190039081611f2c5790505b508d88888f604051611f5b99989796959493929190613c50565b60405180910390a1509098975050505050505050565b606060ff8314611f8b57611f8483612bcb565b905061099b565b818054611f9790613835565b80601f0160208091040260200160405190810160405280929190818152602001828054611fc390613835565b80156120105780601f10611fe557610100808354040283529160200191612010565b820191906000526020600020905b815481529060010190602001808311611ff357829003601f168201915b5050505050905061099b565b600065ffffffffffff8211156120835760405162461bcd60e51b815260206004820152602660248201527f53616665436173743a2076616c756520646f65736e27742066697420696e203460448201526538206269747360d01b60648201526084016102b5565b5090565b604051630748d63560e31b81526001600160a01b038481166004830152602482018490526000917f000000000000000000000000000000000000000000000000000000000000000090911690633a46b1a890604401602060405180830381865afa1580156120f9573d6000803e3d6000fd5b505050506040513d601f19601f8201168201806040525081019061130291906138b0565b600a54604080516001600160a01b03928316815291831660208301527f08f74ea46ef7894f65eabfb5e6e695de773a000b47c529ab559178069b226401910160405180910390a1600a80546001600160a01b0319166001600160a01b0392909216919091179055565b60608315612195575081611305565b6113058383612c0a565b600081116121ff5760405162461bcd60e51b815260206004820152602760248201527f476f7665726e6f7253657474696e67733a20766f74696e6720706572696f6420604482015266746f6f206c6f7760c81b60648201526084016102b5565b60075460408051918252602082018390527f7e3f7f0708a84de9203036abaa450dccc85ad5ff52f78c170f3edb55cf5e8828910160405180910390a1600755565b60085460408051918252602082018390527fccb45da8d5717e6c4544694297c4ba5cf151d455c9bb0ed4fc7a38411bc05461910160405180910390a1600855565b600063288ace0360e11b6318df743f60e31b63bf26d89760e01b6379dd796f60e01b6001600160e01b031986168214806122c757506001600160e01b0319868116908216145b806122de57506001600160e01b0319868116908516145b806122f957506001600160e01b03198616630271189760e51b145b80610fbc57506301ffc9a760e01b6001600160e01b03198716149695505050505050565b6000306001600160a01b037f00000000000000000000000000000000000000000000000000000000000000001614801561237657507f000000000000000000000000000000000000000000000000000000000000000046145b156123a057507f000000000000000000000000000000000000000000000000000000000000000090565b61098b604080517f8b73c3c69bb8fe3d512ecc4cf759cc79239f7b179b0ffacaa9a75d522b39400f60208201527f0000000000000000000000000000000000000000000000000000000000000000918101919091527f000000000000000000000000000000000000000000000000000000000000000060608201524660808201523060a082015260009060c00160405160208183030381529060405280519060200120905090565b6000807f7fffffffffffffffffffffffffffffff5d576e7357a4501ddfe92f46681b20a083111561247f5750600090506003612503565b6040805160008082526020820180845289905260ff881692820192909252606081018690526080810185905260019060a0016020604051602081039080840390855afa1580156124d3573d6000803e3d6000fd5b5050604051601f1901519150506001600160a01b0381166124fc57600060019250925050612503565b9150600090505b94509492505050565b60008160048111156125205761252061337f565b036125285750565b600181600481111561253c5761253c61337f565b036125895760405162461bcd60e51b815260206004820152601860248201527f45434453413a20696e76616c6964207369676e6174757265000000000000000060448201526064016102b5565b600281600481111561259d5761259d61337f565b036125ea5760405162461bcd60e51b815260206004820152601f60248201527f45434453413a20696e76616c6964207369676e6174757265206c656e6774680060448201526064016102b5565b60038160048111156125fe576125fe61337f565b036111825760405162461bcd60e51b815260206004820152602260248201527f45434453413a20696e76616c6964207369676e6174757265202773272076616c604482015261756560f01b60648201526084016102b5565b60008581526009602090815260408083206001600160a01b0388168452600381019092529091205460ff16156126de5760405162461bcd60e51b815260206004820152602760248201527f476f7665726e6f72566f74696e6753696d706c653a20766f746520616c726561604482015266191e4818d85cdd60ca1b60648201526084016102b5565b6001600160a01b03851660009081526003820160205260409020805460ff1916600117905560ff841661272a578281600001600082825461271f9190613a13565b9091555061190e9050565b60001960ff85160161274a578281600101600082825461271f9190613a13565b60011960ff85160161276a578281600201600082825461271f9190613a13565b60405162461bcd60e51b815260206004820152603560248201527f476f7665726e6f72566f74696e6753696d706c653a20696e76616c69642076616044820152746c756520666f7220656e756d20566f74655479706560581b60648201526084016102b5565b8154600160801b90819004600f0b6000818152600180860160205260409091209390935583546001600160801b03908116939091011602179055565b600a5460405163e38335e560e01b81526001600160a01b039091169063e38335e5903490612847908890889088906000908990600401613957565b6000604051808303818588803b15801561286057600080fd5b505af1158015612874573d6000803e3d6000fd5b50505050505050505050565b6000818152600360205260408120600281015460ff16156128a45750600792915050565b6002810154610100900460ff16156128bf5750600292915050565b6000838152600360205260408120546001600160401b0316908190036129275760405162461bcd60e51b815260206004820152601d60248201527f476f7665726e6f723a20756e6b6e6f776e2070726f706f73616c20696400000060448201526064016102b5565b600061293161126c565b65ffffffffffff16905080821061294d57506000949350505050565b6000858152600360205260409020600101546001600160401b031681811061297b5750600195945050505050565b61298486612c34565b80156129a3575060008681526009602052604090208054600190910154115b156129b45750600495945050505050565b50600395945050505050565b6000806129cf86868686612c80565b6000818152600b6020526040902054909150156111db57600a546000828152600b60205260409081902054905163c4d252f560e01b81526001600160a01b039092169163c4d252f591612a289160040190815260200190565b600060405180830381600087803b158015612a4257600080fd5b505af1158015612a56573d6000803e3d6000fd5b5050506000828152600b60205260408120555095945050505050565b80516000906034811015612a8a57600191505061099b565b82810160131901516001600160a01b031981166b046e0e4dee0dee6cae47a60f60a31b14612abd5760019250505061099b565b600080612acb602885613bfc565b90505b83811015612b4257600080612b02888481518110612aee57612aee613bab565b01602001516001600160f81b031916612d8c565b9150915081612b1a576001965050505050505061099b565b8060ff166004856001600160a01b0316901b179350505080612b3b90613bc1565b9050612ace565b50856001600160a01b0316816001600160a01b031614935050505092915050565b60006001600160401b038211156120835760405162461bcd60e51b815260206004820152602660248201527f53616665436173743a2076616c756520646f65736e27742066697420696e203660448201526534206269747360d01b60648201526084016102b5565b60606000612bd883612e1e565b604080516020808252818301909252919250600091906020820181803683375050509182525060208101929092525090565b815115612c1a5781518083602001fd5b8060405162461bcd60e51b81526004016102b5919061308a565b600081815260096020526040812060028101546001820154612c569190613a13565b600084815260036020526040902054612c77906001600160401b0316610935565b11159392505050565b600080612c8f86868686611547565b90506000612c9c82610eaa565b90506002816007811115612cb257612cb261337f565b14158015612cd257506006816007811115612ccf57612ccf61337f565b14155b8015612cf057506007816007811115612ced57612ced61337f565b14155b612d3c5760405162461bcd60e51b815260206004820152601d60248201527f476f7665726e6f723a2070726f706f73616c206e6f742061637469766500000060448201526064016102b5565b60008281526003602052604090819020600201805461ff001916610100179055517f789cf55be980739dad1d0699b93b58e806b51c9d96619bfa8fe0a28abaa7b30c90610d259084815260200190565b60008060f883901c602f81118015612da75750603a8160ff16105b15612dbc57600194602f199091019350915050565b8060ff166040108015612dd2575060478160ff16105b15612de7576001946036199091019350915050565b8060ff166060108015612dfd575060678160ff16105b15612e12576001946056199091019350915050565b50600093849350915050565b600060ff8216601f81111561099b57604051632cd44ac360e21b815260040160405180910390fd5b600060208284031215612e5857600080fd5b81356001600160e01b03198116811461130557600080fd5b803560ff8116811461108357600080fd5b60008083601f840112612e9357600080fd5b5081356001600160401b03811115612eaa57600080fd5b602083019150836020828501011115612ec257600080fd5b9250929050565b634e487b7160e01b600052604160045260246000fd5b604051601f8201601f191681016001600160401b0381118282101715612f0757612f07612ec9565b604052919050565b60006001600160401b03821115612f2857612f28612ec9565b50601f01601f191660200190565b6000612f49612f4484612f0f565b612edf565b9050828152838383011115612f5d57600080fd5b828260208301376000602084830101529392505050565b600082601f830112612f8557600080fd5b61130583833560208501612f36565b60008060008060008060008060e0898b031215612fb057600080fd5b88359750612fc060208a01612e70565b965060408901356001600160401b0380821115612fdc57600080fd5b612fe88c838d01612e81565b909850965060608b013591508082111561300157600080fd5b5061300e8b828c01612f74565b94505061301d60808a01612e70565b925060a0890135915060c089013590509295985092959890939650565b60005b8381101561305557818101518382015260200161303d565b50506000910152565b6000815180845261307681602086016020860161303a565b601f01601f19169290920160200192915050565b602081526000611305602083018461305e565b6000602082840312156130af57600080fd5b5035919050565b6001600160a01b038116811461118257600080fd5b600080600080608085870312156130e157600080fd5b84356130ec816130b6565b935060208501356130fc816130b6565b92506040850135915060608501356001600160401b0381111561311e57600080fd5b61312a87828801612f74565b91505092959194509250565b60006001600160401b0382111561314f5761314f612ec9565b5060051b60200190565b600082601f83011261316a57600080fd5b8135602061317a612f4483613136565b82815260059290921b8401810191818101908684111561319957600080fd5b8286015b848110156131bd5780356131b0816130b6565b835291830191830161319d565b509695505050505050565b600082601f8301126131d957600080fd5b813560206131e9612f4483613136565b82815260059290921b8401810191818101908684111561320857600080fd5b8286015b848110156131bd578035835291830191830161320c565b600082601f83011261323457600080fd5b81356020613244612f4483613136565b82815260059290921b8401810191818101908684111561326357600080fd5b8286015b848110156131bd5780356001600160401b038111156132865760008081fd5b6132948986838b0101612f74565b845250918301918301613267565b600080600080608085870312156132b857600080fd5b84356001600160401b03808211156132cf57600080fd5b6132db88838901613159565b955060208701359150808211156132f157600080fd5b6132fd888389016131c8565b9450604087013591508082111561331357600080fd5b5061332087828801613223565b949793965093946060013593505050565b600080600080600060a0868803121561334957600080fd5b8535945061335960208701612e70565b935061336760408701612e70565b94979396509394606081013594506080013592915050565b634e487b7160e01b600052602160045260246000fd5b60208101600883106133b757634e487b7160e01b600052602160045260246000fd5b91905290565b600080604083850312156133d057600080fd5b8235915060208301356133e2816130b6565b809150509250929050565b6000806040838503121561340057600080fd5b8235915061341060208401612e70565b90509250929050565b60008060008060006080868803121561343157600080fd5b8535945061344160208701612e70565b935060408601356001600160401b038082111561345d57600080fd5b61346989838a01612e81565b9095509350606088013591508082111561348257600080fd5b5061348f88828901612f74565b9150509295509295909350565b600080600080606085870312156134b257600080fd5b843593506134c260208601612e70565b925060408501356001600160401b038111156134dd57600080fd5b6134e987828801612e81565b95989497509550505050565b6000806000806080858703121561350b57600080fd5b84356001600160401b038082111561352257600080fd5b61352e88838901613159565b9550602087013591508082111561354457600080fd5b613550888389016131c8565b9450604087013591508082111561356657600080fd5b61357288838901613223565b9350606087013591508082111561358857600080fd5b508501601f8101871361359a57600080fd5b61312a87823560208401612f36565b600081518084526020808501945080840160005b838110156135d9578151875295820195908201906001016135bd565b509495945050505050565b60ff60f81b8816815260e06020820152600061360360e083018961305e565b8281036040840152613615818961305e565b606084018890526001600160a01b038716608085015260a0840186905283810360c08501529050610a9681856135a9565b60008060006060848603121561365b57600080fd5b8335613666816130b6565b92506020840135915060408401356001600160401b0381111561368857600080fd5b61369486828701612f74565b9150509250925092565b6000602082840312156136b057600080fd5b8135611305816130b6565b600080600080600060a086880312156136d357600080fd5b85356136de816130b6565b945060208601356136ee816130b6565b935060408601356001600160401b038082111561370a57600080fd5b61371689838a016131c8565b9450606088013591508082111561372c57600080fd5b61373889838a016131c8565b9350608088013591508082111561348257600080fd5b6000806000806060858703121561376457600080fd5b843561376f816130b6565b93506020850135925060408501356001600160401b038111156134dd57600080fd5b600080604083850312156137a457600080fd5b82356137af816130b6565b946020939093013593505050565b600080600080600060a086880312156137d557600080fd5b85356137e0816130b6565b945060208601356137f0816130b6565b9350604086013592506060860135915060808601356001600160401b0381111561381957600080fd5b61348f88828901612f74565b8183823760009101908152919050565b600181811c9082168061384957607f821691505b60208210810361386957634e487b7160e01b600052602260045260246000fd5b50919050565b60208082526021908201527f476f7665726e6f723a2070726f706f73616c206e6f74207375636365737366756040820152601b60fa1b606082015260800190565b6000602082840312156138c257600080fd5b5051919050565b600081518084526020808501945080840160005b838110156135d95781516001600160a01b0316875295820195908201906001016138dd565b600081518084526020808501808196508360051b8101915082860160005b8581101561394a57828403895261393884835161305e565b98850198935090840190600101613920565b5091979650505050505050565b60a08152600061396a60a08301886138c9565b828103602084015261397c81886135a9565b905082810360408401526139908187613902565b60608401959095525050608001529392505050565b60c0815260006139b860c08301896138c9565b82810360208401526139ca81896135a9565b905082810360408401526139de8188613902565b60608401969096525050608081019290925260a0909101529392505050565b634e487b7160e01b600052601160045260246000fd5b8082018082111561099b5761099b6139fd565b600060208284031215613a3857600080fd5b81516001600160401b03811115613a4e57600080fd5b8201601f81018413613a5f57600080fd5b8051613a6d612f4482612f0f565b818152856020838501011115613a8257600080fd5b6111db82602083016020860161303a565b60208082526018908201527f476f7665726e6f723a206f6e6c79476f7665726e616e63650000000000000000604082015260600190565b600060208284031215613adc57600080fd5b815165ffffffffffff8116811461130557600080fd5b608081526000613b0560808301876138c9565b8281036020840152613b1781876135a9565b90508281036040840152613b2b8186613902565b91505082606083015295945050505050565b84815260ff84166020820152826040820152608060608201526000610fbc608083018461305e565b85815260ff8516602082015283604082015260a060608201526000613b8d60a083018561305e565b8281036080840152613b9f818561305e565b98975050505050505050565b634e487b7160e01b600052603260045260246000fd5b600060018201613bd357613bd36139fd565b5060010190565b600060208284031215613bec57600080fd5b8151801515811461130557600080fd5b8181038181111561099b5761099b6139fd565b60208082526021908201527f476f7665726e6f723a20696e76616c69642070726f706f73616c206c656e67746040820152600d60fb1b606082015260800190565b60006101208b8352602060018060a01b038c1681850152816040850152613c798285018c6138c9565b91508382036060850152613c8d828b6135a9565b915083820360808501528189518084528284019150828160051b850101838c0160005b83811015613cde57601f19878403018552613ccc83835161305e565b94860194925090850190600101613cb0565b505086810360a0880152613cf2818c613902565b9450505050508560c08401528460e0840152828103610100840152613d17818561305e565b9c9b50505050505050505050505056fe476f7665726e6f723a2072656c617920726576657274656420776974686f7574206d657373616765a2646970667358221220d97dfbb812ccc21c2af14251e16c9ecc70726ea9a83b3b657f0ee2c656506edb64736f6c63430008140033",
  "linkReferences": {},
  "deployedLinkReferences": {}
}