{
  "_format": "hh-sol-artifact-1",
  "contractName": "DAOToken",
  "sourceName": "contracts/DAO.sol",
  "abi": [
    {
      "inputs": [],
      "stateMutability": "nonpayable",
      "type": "constructor"
    },
    {
      "inputs": [],
      "name": "InvalidShortString",
      "type": "error"
    },
    {
      "inputs": [
        {
          "internalType": "string",
          "name": "str",
          "type": "string"
        }
      ],
      "name": "StringTooLong",
      "type": "error"
    },
    {
      "anonymous": false,
      "inputs": [
        {
          "indexed": true,
          "internalType": "address",
          "name": "owner",
          "type": "address"
        },
        {
          "indexed": true,
          "internalType": "address",
          "name": "spender",
          "type": "address"
        },
        {
          "indexed": false,
          "internalType": "uint256",
          "name": "value",
          "type": "uint256"
        }
      ],
      "name": "Approval",
      "type": "event"
    },
    {
      "anonymous": false,
      "inputs": [
        {
          "indexed": true,
          "internalType": "address",
          "name": "delegator",
          "type": "address"
        },
        {
          "indexed": true,
          "internalType": "address",
          "name": "fromDelegate",
          "type": "address"
        },
        {
          "indexed": true,
          "internalType": "address",
          "name": "toDelegate",
          "type": "address"
        }
      ],
      "name": "DelegateChanged",
      "type": "event"
    },
    {
      "anonymous": false,
      "inputs": [
        {
          "indexed": true,
          "internalType": "address",
          "name": "delegate",
          "type": "address"
        },
        {
          "indexed": false,
          "internalType": "uint256",
          "name": "previousBalance",
          "type": "uint256"
        },
        {
          "indexed": false,
          "internalType": "uint256",
          "name": "newBalance",
          "type": "uint256"
        }
      ],
      "name": "DelegateVotesChanged",
      "type": "event"
    },
    {
      "anonymous": false,
      "inputs": [],
      "name": "EIP712DomainChanged",
      "type": "event"
    },
    {
      "anonymous": false,
      "inputs": [
        {
          "indexed": true,
          "internalType": "address",
          "name": "from",
          "type": "address"
        },
        {
          "indexed": true,
          "internalType": "address",
          "name": "to",
          "type": "address"
        },
        {
          "indexed": false,
          "internalType": "uint256",
          "name": "value",
          "type": "uint256"
        }
      ],
      "name": "Transfer",
      "type": "event"
    },
    {
      "inputs": [],
      "name": "CLOCK_MODE",
      "outputs": [
        {
          "internalType": "string",
          "name": "",
          "type": "string"
        }
      ],
      "stateMutability": "view",
      "type": "function"
    },
    {
      "inputs": [],
      "name": "DOMAIN_SEPARATOR",
      "outputs": [
        {
          "internalType": "bytes32",
          "name": "",
          "type": "bytes32"
        }
      ],
      "stateMutability": "view",
      "type": "function"
    },
    {
      "inputs": [
        {
          "internalType": "address",
          "name": "owner",
          "type": "address"
        },
        {
          "internalType": "address",
          "name": "spender",
          "type": "address"
        }
      ],
      "name": "allowance",
      "outputs": [
        {
          "internalType": "uint256",
          "name": "",
          "type": "uint256"
        }
      ],
      "stateMutability": "view",
      "type": "function"
    },
    {
      "inputs": [
        {
          "internalType": "address",
          "name": "spender",
          "type": "address"
        },
        {
          "internalType": "uint256",
          "name": "amount",
          "type": "uint256"
        }
      ],
      "name": "approve",
      "outputs": [
        {
          "internalType": "bool",
          "name": "",
          "type": "bool"
        }
      ],
      "stateMutability": "nonpayable",
      "type": "function"
    },
    {
      "inputs": [
        {
          "internalType": "address",
          "name": "account",
          "type": "address"
        }
      ],
      "name": "balanceOf",
      "outputs": [
        {
          "internalType": "uint256",
          "name": "",
          "type": "uint256"
        }
      ],
      "stateMutability": "view",
      "type": "function"
    },
    {
      "inputs": [
        {
          "internalType": "address",
          "name": "account",
          "type": "address"
        },
        {
          "internalType": "uint32",
          "name": "pos",
          "type": "uint32"
        }
      ],
      "name": "checkpoints",
      "outputs": [
        {
          "components": [
            {
              "internalType": "uint32",
              "name": "fromBlock",
              "type": "uint32"
            },
            {
              "internalType": "uint224",
              "name": "votes",
              "type": "uint224"
            }
          ],
          "internalType": "struct ERC20Votes.Checkpoint",
          "name": "",
          "type": "tuple"
        }
      ],
      "stateMutability": "view",
      "type": "function"
    },
    {
      "inputs": [],
      "name": "clock",
      "outputs": [
        {
          "internalType": "uint48",
          "name": "",
          "type": "uint48"
        }
      ],
      "stateMutability": "view",
      "type": "function"
    },
    {
      "inputs": [],
      "name": "decimals",
      "outputs": [
        {
          "internalType": "uint8",
          "name": "",
          "type": "uint8"
        }
      ],
      "stateMutability": "view",
      "type": "function"
    },
    {
      "inputs": [
        {
          "internalType": "address",
          "name": "spender",
          "type": "address"
        },
        {
          "internalType": "uint256",
          "name": "subtractedValue",
          "type": "uint256"
        }
      ],
      "name": "decreaseAllowance",
      "outputs": [
        {
          "internalType": "bool",
          "name": "",
          "type": "bool"
        }
      ],
      "stateMutability": "nonpayable",
      "type": "function"
    },
    {
      "inputs": [
        {
          "internalType": "address",
          "name": "delegatee",
          "type": "address"
        }
      ],
      "name": "delegate",
      "outputs": [],
      "stateMutability": "nonpayable",
      "type": "function"
    },
    {
      "inputs": [
        {
          "internalType": "address",
          "name": "delegatee",
          "type": "address"
        },
        {
          "internalType": "uint256",
          "name": "nonce",
          "type": "uint256"
        },
        {
          "internalType": "uint256",
          "name": "expiry",
          "type": "uint256"
        },
        {
          "internalType": "uint8",
          "name": "v",
          "type": "uint8"
        },
        {
          "internalType": "bytes32",
          "name": "r",
          "type": "bytes32"
        },
        {
          "internalType": "bytes32",
          "name": "s",
          "type": "bytes32"
        }
      ],
      "name": "delegateBySig",
      "outputs": [],
      "stateMutability": "nonpayable",
      "type": "function"
    },
    {
      "inputs": [
        {
          "internalType": "address",
          "name": "account",
          "type": "address"
        }
      ],
      "name": "delegates",
      "outputs": [
        {
          "internalType": "address",
          "name": "",
          "type": "address"
        }
      ],
      "stateMutability": "view",
      "type": "function"
    },
    {
      "inputs": [],
      "name": "eip712Domain",
      "outputs": [
        {
          "internalType": "bytes1",
          "name": "fields",
          "type": "bytes1"
        },
        {
          "internalType": "string",
          "name": "name",
          "type": "string"
        },
        {
          "internalType": "string",
          "name": "version",
          "type": "string"
        },
        {
          "internalType": "uint256",
          "name": "chainId",
          "type": "uint256"
        },
        {
          "internalType": "address",
          "name": "verifyingContract",
          "type": "address"
        },
        {
          "internalType": "bytes32",
          "name": "salt",
          "type": "bytes32"
        },
        {
          "internalType": "uint256[]",
          "name": "extensions",
          "type": "uint256[]"
        }
      ],
      "stateMutability": "view",
      "type": "function"
    },
    {
      "inputs": [
        {
          "internalType": "uint256",
          "name": "timepoint",
          "type": "uint256"
        }
      ],
      "name": "getPastTotalSupply",
      "outputs": [
        {
          "internalType": "uint256",
          "name": "",
          "type": "uint256"
        }
      ],
      "stateMutability": "view",
      "type": "function"
    },
    {
      "inputs": [
        {
          "internalType": "address",
          "name": "account",
          "type": "address"
        },
        {
          "internalType": "uint256",
          "name": "timepoint",
          "type": "uint256"
        }
      ],
      "name": "getPastVotes",
      "outputs": [
        {
          "internalType": "uint256",
          "name": "",
          "type": "uint256"
        }
      ],
      "stateMutability": "view",
      "type": "function"
    },
    {
      "inputs": [
        {
          "internalType": "address",
          "name": "account",
          "type": "address"
        }
      ],
      "name": "getVotes",
      "outputs": [
        {
          "internalType": "uint256",
          "name": "",
          "type": "uint256"
        }
      ],
      "stateMutability": "view",
      "type": "function"
    },
    {
      "inputs": [
        {
          "internalType": "address",
          "name": "spender",
          "type": "address"
        },
        {
          "internalType": "uint256",
          "name": "addedValue",
          "type": "uint256"
        }
      ],
      "name": "increaseAllowance",
      "outputs": [
        {
          "internalType": "bool",
          "name": "",
          "type": "bool"
        }
      ],
      "stateMutability": "nonpayable",
      "type": "function"
    },
    {
      "inputs": [],
      "name": "name",
      "outputs": [
        {
          "internalType": "string",
          "name": "",
          "type": "string"
        }
      ],
      "stateMutability": "view",
      "type": "function"
    },
    {
      "inputs": [
        {
          "internalType": "address",
          "name": "owner",
          "type": "address"
        }
      ],
      "name": "nonces",
      "outputs": [
        {
          "internalType": "uint256",
          "name": "",
          "type": "uint256"
        }
      ],
      "stateMutability": "view",
      "type": "function"
    },
    {
      "inputs": [
        {
          "internalType": "address",
          "name": "account",
          "type": "address"
        }
      ],
      "name": "numCheckpoints",
      "outputs": [
        {
          "internalType": "uint32",
          "name": "",
          "type": "uint32"
        }
      ],
      "stateMutability": "view",
      "type": "function"
    },
    {
      "inputs": [
        {
          "internalType": "address",
          "name": "owner",
          "type": "address"
        },
        {
          "internalType": "address",
          "name": "spender",
          "type": "address"
        },
        {
          "internalType": "uint256",
          "name": "value",
          "type": "uint256"
        },
        {
          "internalType": "uint256",
          "name": "deadline",
          "type": "uint256"
        },
        {
          "internalType": "uint8",
          "name": "v",
          "type": "uint8"
        },
        {
          "internalType": "bytes32",
          "name": "r",
          "type": "bytes32"
        },
        {
          "internalType": "bytes32",
          "name": "s",
          "type": "bytes32"
        }
      ],
      "name": "permit",
      "outputs": [],
      "stateMutability": "nonpayable",
      "type": "function"
    },
    {
      "inputs": [],
      "name": "symbol",
      "outputs": [
        {
          "internalType": "string",
          "name": "",
          "type": "string"
        }
      ],
      "stateMutability": "view",
      "type": "function"
    },
    {
      "inputs": [],
      "name": "totalSupply",
      "outputs": [
        {
          "internalType": "uint256",
          "name": "",
          "type": "uint256"
        }
      ],
      "stateMutability": "view",
      "type": "function"
    },
    {
      "inputs": [
        {
          "internalType": "address",
          "name": "to",
          "type": "address"
        },
        {
          "internalType": "uint256",
          "name": "amount",
          "type": "uint256"
        }
      ],
      "name": "transfer",
      "outputs": [
        {
          "internalType": "bool",
          "name": "",
          "type": "bool"
        }
      ],
      "stateMutability": "nonpayable",
      "type": "function"
    },
    {
      "inputs": [
        {
          "internalType": "address",
          "name": "from",
          "type": "address"
        },
        {
          "internalType": "address",
          "name": "to",
          "type": "address"
        },
        {
          "internalType": "uint256",
          "name": "amount",
          "type": "uint256"
        }
      ],
      "name": "transferFrom",
      "outputs": [
        {
          "internalType": "bool",
          "name": "",
          "type": "bool"
        }
      ],
      "stateMutability": "nonpayable",
      "type": "function"
    }
  ],
  "bytecode": "0x6101606040523480156200001257600080fd5b506040518060400160405280601481526020017f44414f20476f7665726e616e636520546f6b656e00000000000000000000000081525080604051806040016040528060018152602001603160f81b8152506040518060400160405280601481526020017f44414f20476f7665726e616e636520546f6b656e000000000000000000000000815250604051806040016040528060038152602001621111d560ea1b8152508160039081620000c79190620008ef565b506004620000d68282620008ef565b50620000e891508390506005620001be565b61012052620000f9816006620001be565b61014052815160208084019190912060e052815190820120610100524660a0526200018760e05161010051604080517f8b73c3c69bb8fe3d512ecc4cf759cc79239f7b179b0ffacaa9a75d522b39400f60208201529081019290925260608201524660808201523060a082015260009060c00160405160208183030381529060405280519060200120905090565b60805250503060c05250620001b833620001a46012600a62000ace565b620001b29061271062000adf565b620001f7565b62000b9a565b6000602083511015620001de57620001d68362000207565b9050620001f1565b81620001eb8482620008ef565b5060ff90505b92915050565b62000203828262000253565b5050565b600080829050601f815111156200023e578260405163305a27a960e01b815260040162000235919062000af9565b60405180910390fd5b80516200024b8262000b49565b179392505050565b6200025f8282620002fb565b6001600160e01b0362000273620003c88216565b1115620002dc5760405162461bcd60e51b815260206004820152603060248201527f4552433230566f7465733a20746f74616c20737570706c79207269736b73206f60448201526f766572666c6f77696e6720766f74657360801b606482015260840162000235565b620002f5600b62000bb2620003ce60201b1783620003e3565b50505050565b6001600160a01b038216620003535760405162461bcd60e51b815260206004820152601f60248201527f45524332303a206d696e7420746f20746865207a65726f206164647265737300604482015260640162000235565b806002600082825462000367919062000b6e565b90915550506001600160a01b038216600081815260208181526040808320805486019055518481527fddf252ad1be2c89b69c2b068fc378daa952ba7f163c4a11628f55a4df523b3ef910160405180910390a3620002036000838362000570565b60025490565b6000620003dc828462000b6e565b9392505050565b82546000908190818115620004325760008781526020902082016000190160408051808201909152905463ffffffff8116825264010000000090046001600160e01b0316602082015262000447565b60408051808201909152600080825260208201525b905080602001516001600160e01b031693506200046584868860201c565b92506000821180156200049257506200047d6200057d565b65ffffffffffff16816000015163ffffffff16145b15620004db57620004a3836200058f565b60008881526020902083016000190180546001600160e01b03929092166401000000000263ffffffff90921691909117905562000561565b86604051806040016040528062000509620004fb6200057d60201b60201c565b65ffffffffffff16620005fe565b63ffffffff1681526020016200051f866200058f565b6001600160e01b0390811690915282546001810184556000938452602093849020835194909301519091166401000000000263ffffffff909316929092179101555b5050935093915050565b505050565b6200056b83838362000665565b60006200058a4362000699565b905090565b60006001600160e01b03821115620005fa5760405162461bcd60e51b815260206004820152602760248201527f53616665436173743a2076616c756520646f65736e27742066697420696e20326044820152663234206269747360c81b606482015260840162000235565b5090565b600063ffffffff821115620005fa5760405162461bcd60e51b815260206004820152602660248201527f53616665436173743a2076616c756520646f65736e27742066697420696e203360448201526532206269747360d01b606482015260840162000235565b6001600160a01b038381166000908152600960205260408082205485841683529120546200056b9291821691168362000702565b600065ffffffffffff821115620005fa5760405162461bcd60e51b815260206004820152602660248201527f53616665436173743a2076616c756520646f65736e27742066697420696e203460448201526538206269747360d01b606482015260840162000235565b816001600160a01b0316836001600160a01b031614158015620007255750600081115b156200056b576001600160a01b03831615620007b2576001600160a01b0383166000908152600a60209081526040822082916200076f91906200083d901b62000bbe1785620003e3565b91509150846001600160a01b031660008051602062002b008339815191528383604051620007a7929190918252602082015260400190565b60405180910390a250505b6001600160a01b038216156200056b576001600160a01b0382166000908152600a6020908152604082208291620007f69190620003ce901b62000bb21785620003e3565b91509150836001600160a01b031660008051602062002b0083398151915283836040516200082e929190918252602082015260400190565b60405180910390a25050505050565b6000620003dc828462000b84565b634e487b7160e01b600052604160045260246000fd5b600181811c908216806200087657607f821691505b6020821081036200089757634e487b7160e01b600052602260045260246000fd5b50919050565b601f8211156200056b57600081815260208120601f850160051c81016020861015620008c65750805b601f850160051c820191505b81811015620008e757828155600101620008d2565b505050505050565b81516001600160401b038111156200090b576200090b6200084b565b62000923816200091c845462000861565b846200089d565b602080601f8311600181146200095b5760008415620009425750858301515b600019600386901b1c1916600185901b178555620008e7565b600085815260208120601f198616915b828110156200098c578886015182559484019460019091019084016200096b565b5085821015620009ab5787850151600019600388901b60f8161c191681555b5050505050600190811b01905550565b634e487b7160e01b600052601160045260246000fd5b600181815b8085111562000a12578160001904821115620009f657620009f6620009bb565b8085161562000a0457918102915b93841c9390800290620009d6565b509250929050565b60008262000a2b57506001620001f1565b8162000a3a57506000620001f1565b816001811462000a53576002811462000a5e5762000a7e565b6001915050620001f1565b60ff84111562000a725762000a72620009bb565b50506001821b620001f1565b5060208310610133831016604e8410600b841016171562000aa3575081810a620001f1565b62000aaf8383620009d1565b806000190482111562000ac65762000ac6620009bb565b029392505050565b6000620003dc60ff84168362000a1a565b8082028115828204841417620001f157620001f1620009bb565b600060208083528351808285015260005b8181101562000b285785810183015185820160400152820162000b0a565b506000604082860101526040601f19601f8301168501019250505092915050565b80516020808301519190811015620008975760001960209190910360031b1b16919050565b80820180821115620001f157620001f1620009bb565b81810381811115620001f157620001f1620009bb565b60805160a05160c05160e051610100516101205161014051611f0b62000bf5600039600061068d0152600061066201526000610fec01526000610fc401526000610f1f01526000610f4901526000610f730152611f0b6000f3fe608060405234801561001057600080fd5b50600436106101735760003560e01c806370a08231116100de5780639ab24eb011610097578063c3cda52011610071578063c3cda5201461036e578063d505accf14610381578063dd62ed3e14610394578063f1127ed8146103a757600080fd5b80639ab24eb014610335578063a457c2d714610348578063a9059cbb1461035b57600080fd5b806370a08231146102a45780637ecebe00146102cd57806384b0196e146102e05780638e539e8c146102fb57806391ddadf41461030e57806395d89b411461032d57600080fd5b8063395093511161013057806339509351146101f55780633a46b1a8146102085780634bf5d7e91461021b578063587cde1e146102235780635c19a95c146102675780636fcfff451461027c57600080fd5b806306fdde0314610178578063095ea7b31461019657806318160ddd146101b957806323b872dd146101cb578063313ce567146101de5780633644e515146101ed575b600080fd5b6101806103e4565b60405161018d9190611b5c565b60405180910390f35b6101a96101a4366004611b8b565b610476565b604051901515815260200161018d565b6002545b60405190815260200161018d565b6101a96101d9366004611bb5565b610490565b6040516012815260200161018d565b6101bd6104b4565b6101a9610203366004611b8b565b6104c3565b6101bd610216366004611b8b565b6104e5565b61018061056f565b61024f610231366004611bf1565b6001600160a01b039081166000908152600960205260409020541690565b6040516001600160a01b03909116815260200161018d565b61027a610275366004611bf1565b610607565b005b61028f61028a366004611bf1565b610614565b60405163ffffffff909116815260200161018d565b6101bd6102b2366004611bf1565b6001600160a01b031660009081526020819052604090205490565b6101bd6102db366004611bf1565b610636565b6102e8610654565b60405161018d9796959493929190611c0c565b6101bd610309366004611ca2565b6106dd565b610316610744565b60405165ffffffffffff909116815260200161018d565b61018061074f565b6101bd610343366004611bf1565b61075e565b6101a9610356366004611b8b565b6107e0565b6101a9610369366004611b8b565b61085b565b61027a61037c366004611ccc565b610869565b61027a61038f366004611d24565b61099f565b6101bd6103a2366004611d8e565b610b03565b6103ba6103b5366004611dc1565b610b2e565b60408051825163ffffffff1681526020928301516001600160e01b0316928101929092520161018d565b6060600380546103f390611e01565b80601f016020809104026020016040519081016040528092919081815260200182805461041f90611e01565b801561046c5780601f106104415761010080835404028352916020019161046c565b820191906000526020600020905b81548152906001019060200180831161044f57829003601f168201915b5050505050905090565b600033610484818585610bca565b60019150505b92915050565b60003361049e858285610cee565b6104a9858585610d68565b506001949350505050565b60006104be610f12565b905090565b6000336104848185856104d68383610b03565b6104e09190611e4b565b610bca565b60006104ef610744565b65ffffffffffff1682106105465760405162461bcd60e51b815260206004820152601960248201527804552433230566f7465733a20667574757265206c6f6f6b757603c1b60448201526064015b60405180910390fd5b6001600160a01b0383166000908152600a60205260409020610568908361103d565b9392505050565b60604361057a610744565b65ffffffffffff16146105cf5760405162461bcd60e51b815260206004820152601d60248201527f4552433230566f7465733a2062726f6b656e20636c6f636b206d6f6465000000604482015260640161053d565b5060408051808201909152601d81527f6d6f64653d626c6f636b6e756d6265722666726f6d3d64656661756c74000000602082015290565b6106113382611126565b50565b6001600160a01b0381166000908152600a602052604081205461048a9061119f565b6001600160a01b03811660009081526007602052604081205461048a565b6000606080828080836106887f00000000000000000000000000000000000000000000000000000000000000006005611208565b6106b37f00000000000000000000000000000000000000000000000000000000000000006006611208565b60408051600080825260208201909252600f60f81b9b939a50919850469750309650945092509050565b60006106e7610744565b65ffffffffffff1682106107395760405162461bcd60e51b815260206004820152601960248201527804552433230566f7465733a20667574757265206c6f6f6b757603c1b604482015260640161053d565b61048a600b8361103d565b60006104be436112b3565b6060600480546103f390611e01565b6001600160a01b0381166000908152600a602052604081205480156107cd576001600160a01b0383166000908152600a60205260409020805460001983019081106107ab576107ab611e5e565b60009182526020909120015464010000000090046001600160e01b03166107d0565b60005b6001600160e01b03169392505050565b600033816107ee8286610b03565b90508381101561084e5760405162461bcd60e51b815260206004820152602560248201527f45524332303a2064656372656173656420616c6c6f77616e63652062656c6f77604482015264207a65726f60d81b606482015260840161053d565b6104a98286868403610bca565b600033610484818585610d68565b834211156108b95760405162461bcd60e51b815260206004820152601d60248201527f4552433230566f7465733a207369676e61747572652065787069726564000000604482015260640161053d565b604080517fe48329057bfd03d55e49b547132e39cffd9c1820ad7b9d4c5307691425d15adf60208201526001600160a01b0388169181019190915260608101869052608081018590526000906109339061092b9060a0016040516020818303038152906040528051906020012061131a565b858585611347565b905061093e8161136f565b861461098c5760405162461bcd60e51b815260206004820152601960248201527f4552433230566f7465733a20696e76616c6964206e6f6e636500000000000000604482015260640161053d565b6109968188611126565b50505050505050565b834211156109ef5760405162461bcd60e51b815260206004820152601d60248201527f45524332305065726d69743a206578706972656420646561646c696e65000000604482015260640161053d565b60007f6e71edae12b1b97f4d1f60370fef10105fa2faae0126114a169c64845d6126c9888888610a1e8c61136f565b6040805160208101969096526001600160a01b0394851690860152929091166060840152608083015260a082015260c0810186905260e0016040516020818303038152906040528051906020012090506000610a798261131a565b90506000610a8982878787611347565b9050896001600160a01b0316816001600160a01b031614610aec5760405162461bcd60e51b815260206004820152601e60248201527f45524332305065726d69743a20696e76616c6964207369676e61747572650000604482015260640161053d565b610af78a8a8a610bca565b50505050505050505050565b6001600160a01b03918216600090815260016020908152604080832093909416825291909152205490565b60408051808201909152600080825260208201526001600160a01b0383166000908152600a60205260409020805463ffffffff8416908110610b7257610b72611e5e565b60009182526020918290206040805180820190915291015463ffffffff8116825264010000000090046001600160e01b0316918101919091529392505050565b60006105688284611e4b565b60006105688284611e74565b6001600160a01b038316610c2c5760405162461bcd60e51b8152602060048201526024808201527f45524332303a20617070726f76652066726f6d20746865207a65726f206164646044820152637265737360e01b606482015260840161053d565b6001600160a01b038216610c8d5760405162461bcd60e51b815260206004820152602260248201527f45524332303a20617070726f766520746f20746865207a65726f206164647265604482015261737360f01b606482015260840161053d565b6001600160a01b0383811660008181526001602090815260408083209487168084529482529182902085905590518481527f8c5be1e5ebec7d5bd14f71427d1e84f3dd0314c0f7b2291e5b200ac8c7c3b925910160405180910390a3505050565b6000610cfa8484610b03565b90506000198114610d625781811015610d555760405162461bcd60e51b815260206004820152601d60248201527f45524332303a20696e73756666696369656e7420616c6c6f77616e6365000000604482015260640161053d565b610d628484848403610bca565b50505050565b6001600160a01b038316610dcc5760405162461bcd60e51b815260206004820152602560248201527f45524332303a207472616e736665722066726f6d20746865207a65726f206164604482015264647265737360d81b606482015260840161053d565b6001600160a01b038216610e2e5760405162461bcd60e51b815260206004820152602360248201527f45524332303a207472616e7366657220746f20746865207a65726f206164647260448201526265737360e81b606482015260840161053d565b6001600160a01b03831660009081526020819052604090205481811015610ea65760405162461bcd60e51b815260206004820152602660248201527f45524332303a207472616e7366657220616d6f756e7420657863656564732062604482015265616c616e636560d01b606482015260840161053d565b6001600160a01b03848116600081815260208181526040808320878703905593871680835291849020805487019055925185815290927fddf252ad1be2c89b69c2b068fc378daa952ba7f163c4a11628f55a4df523b3ef910160405180910390a3610d6284848461139c565b6000306001600160a01b037f000000000000000000000000000000000000000000000000000000000000000016148015610f6b57507f000000000000000000000000000000000000000000000000000000000000000046145b15610f9557507f000000000000000000000000000000000000000000000000000000000000000090565b6104be604080517f8b73c3c69bb8fe3d512ecc4cf759cc79239f7b179b0ffacaa9a75d522b39400f60208201527f0000000000000000000000000000000000000000000000000000000000000000918101919091527f000000000000000000000000000000000000000000000000000000000000000060608201524660808201523060a082015260009060c00160405160208183030381529060405280519060200120905090565b815460009081816005811115611097576000611058846113a7565b6110629085611e74565b600088815260209020909150869082015463ffffffff16111561108757809150611095565b611092816001611e4b565b92505b505b808210156110e45760006110ab838361148f565b600088815260209020909150869082015463ffffffff1611156110d0578091506110de565b6110db816001611e4b565b92505b50611097565b8015611110576000868152602090208101600019015464010000000090046001600160e01b0316611113565b60005b6001600160e01b03169695505050505050565b6001600160a01b038281166000818152600960208181526040808420805485845282862054949093528787166001600160a01b03198416811790915590519190951694919391928592917f3134e8a2e6d97e929a7e54011ea5485d7d196dd5f0ba4d4ef95803e8e3fc257f9190a4610d628284836114aa565b600063ffffffff8211156112045760405162461bcd60e51b815260206004820152602660248201527f53616665436173743a2076616c756520646f65736e27742066697420696e203360448201526532206269747360d01b606482015260840161053d565b5090565b606060ff83146112225761121b836115e7565b905061048a565b81805461122e90611e01565b80601f016020809104026020016040519081016040528092919081815260200182805461125a90611e01565b80156112a75780601f1061127c576101008083540402835291602001916112a7565b820191906000526020600020905b81548152906001019060200180831161128a57829003601f168201915b5050505050905061048a565b600065ffffffffffff8211156112045760405162461bcd60e51b815260206004820152602660248201527f53616665436173743a2076616c756520646f65736e27742066697420696e203460448201526538206269747360d01b606482015260840161053d565b600061048a611327610f12565b8360405161190160f01b8152600281019290925260228201526042902090565b600080600061135887878787611626565b91509150611365816116ea565b5095945050505050565b6001600160a01b03811660009081526007602052604090208054600181018255905b50919050565b505050565b611397838383611834565b6000816000036113b957506000919050565b600060016113c684611866565b901c6001901b905060018184816113df576113df611e87565b048201901c905060018184816113f7576113f7611e87565b048201901c9050600181848161140f5761140f611e87565b048201901c9050600181848161142757611427611e87565b048201901c9050600181848161143f5761143f611e87565b048201901c9050600181848161145757611457611e87565b048201901c9050600181848161146f5761146f611e87565b048201901c90506105688182858161148957611489611e87565b046118fa565b600061149e6002848418611e9d565b61056890848416611e4b565b816001600160a01b0316836001600160a01b0316141580156114cc5750600081115b15611397576001600160a01b0383161561155a576001600160a01b0383166000908152600a60205260408120819061150790610bbe85611910565b91509150846001600160a01b03167fdec2bacdd2f05b59de34da9b523dff8be42e5e38e818c82fdb0bae774387a724838360405161154f929190918252602082015260400190565b60405180910390a250505b6001600160a01b03821615611397576001600160a01b0382166000908152600a60205260408120819061159090610bb285611910565b91509150836001600160a01b03167fdec2bacdd2f05b59de34da9b523dff8be42e5e38e818c82fdb0bae774387a72483836040516115d8929190918252602082015260400190565b60405180910390a25050505050565b606060006115f483611a85565b604080516020808252818301909252919250600091906020820181803683375050509182525060208101929092525090565b6000807f7fffffffffffffffffffffffffffffff5d576e7357a4501ddfe92f46681b20a083111561165d57506000905060036116e1565b6040805160008082526020820180845289905260ff881692820192909252606081018690526080810185905260019060a0016020604051602081039080840390855afa1580156116b1573d6000803e3d6000fd5b5050604051601f1901519150506001600160a01b0381166116da576000600192509250506116e1565b9150600090505b94509492505050565b60008160048111156116fe576116fe611ebf565b036117065750565b600181600481111561171a5761171a611ebf565b036117675760405162461bcd60e51b815260206004820152601860248201527f45434453413a20696e76616c6964207369676e61747572650000000000000000604482015260640161053d565b600281600481111561177b5761177b611ebf565b036117c85760405162461bcd60e51b815260206004820152601f60248201527f45434453413a20696e76616c6964207369676e6174757265206c656e67746800604482015260640161053d565b60038160048111156117dc576117dc611ebf565b036106115760405162461bcd60e51b815260206004820152602260248201527f45434453413a20696e76616c6964207369676e6174757265202773272076616c604482015261756560f01b606482015260840161053d565b6001600160a01b03838116600090815260096020526040808220548584168352912054611397929182169116836114aa565b600080608083901c1561187b57608092831c92015b604083901c1561188d57604092831c92015b602083901c1561189f57602092831c92015b601083901c156118b157601092831c92015b600883901c156118c357600892831c92015b600483901c156118d557600492831c92015b600283901c156118e757600292831c92015b600183901c1561048a5760010192915050565b60008183106119095781610568565b5090919050565b8254600090819081811561195d5760008781526020902082016000190160408051808201909152905463ffffffff8116825264010000000090046001600160e01b03166020820152611972565b60408051808201909152600080825260208201525b905080602001516001600160e01b0316935061199284868863ffffffff16565b92506000821180156119bc57506119a7610744565b65ffffffffffff16816000015163ffffffff16145b15611a01576119ca83611aad565b60008881526020902083016000190180546001600160e01b03929092166401000000000263ffffffff909216919091179055611a7b565b866040518060400160405280611a25611a18610744565b65ffffffffffff1661119f565b63ffffffff168152602001611a3986611aad565b6001600160e01b0390811690915282546001810184556000938452602093849020835194909301519091166401000000000263ffffffff909316929092179101555b5050935093915050565b600060ff8216601f81111561048a57604051632cd44ac360e21b815260040160405180910390fd5b60006001600160e01b038211156112045760405162461bcd60e51b815260206004820152602760248201527f53616665436173743a2076616c756520646f65736e27742066697420696e20326044820152663234206269747360c81b606482015260840161053d565b6000815180845260005b81811015611b3c57602081850181015186830182015201611b20565b506000602082860101526020601f19601f83011685010191505092915050565b6020815260006105686020830184611b16565b80356001600160a01b0381168114611b8657600080fd5b919050565b60008060408385031215611b9e57600080fd5b611ba783611b6f565b946020939093013593505050565b600080600060608486031215611bca57600080fd5b611bd384611b6f565b9250611be160208501611b6f565b9150604084013590509250925092565b600060208284031215611c0357600080fd5b61056882611b6f565b60ff60f81b881681526000602060e081840152611c2c60e084018a611b16565b8381036040850152611c3e818a611b16565b606085018990526001600160a01b038816608086015260a0850187905284810360c0860152855180825283870192509083019060005b81811015611c9057835183529284019291840191600101611c74565b50909c9b505050505050505050505050565b600060208284031215611cb457600080fd5b5035919050565b803560ff81168114611b8657600080fd5b60008060008060008060c08789031215611ce557600080fd5b611cee87611b6f565b95506020870135945060408701359350611d0a60608801611cbb565b92506080870135915060a087013590509295509295509295565b600080600080600080600060e0888a031215611d3f57600080fd5b611d4888611b6f565b9650611d5660208901611b6f565b95506040880135945060608801359350611d7260808901611cbb565b925060a0880135915060c0880135905092959891949750929550565b60008060408385031215611da157600080fd5b611daa83611b6f565b9150611db860208401611b6f565b90509250929050565b60008060408385031215611dd457600080fd5b611ddd83611b6f565b9150602083013563ffffffff81168114611df657600080fd5b809150509250929050565b600181811c90821680611e1557607f821691505b60208210810361139157634e487b7160e01b600052602260045260246000fd5b634e487b7160e01b600052601160045260246000fd5b8082018082111561048a5761048a611e35565b634e487b7160e01b600052603260045260246000fd5b8181038181111561048a5761048a611e35565b634e487b7160e01b600052601260045260246000fd5b600082611eba57634e487b7160e01b600052601260045260246000fd5b500490565b634e487b7160e01b600052602160045260246000fdfea26469706673582212205d950adbf63d87e42a1597ebd85b1c529b9339b89575ea51d0fb347f24e2a5d164736f6c63430008140033dec2bacdd2f05b59de34da9b523dff8be42e5e38e818c82fdb0bae774387a724",
  "linkReferences": {},
  "deployedLinkReferences": {}
}